:020000041000EA
:1000000000B5324B212058609868022188439860DF
:10001000D860186158612E4B002199600221596106
:100020000121F02299502B49196001219960352056
:1000300000F044F80222904214D00621196600F024
:1000400034F8196E01211966002018661A6600F04E
:100050002CF8196E196E196E052000F02FF8012189
:100060000842F9D1002199601B49196000215960AB
:100070001A491B48016001219960EB211966A021F2
:10008000196600F012F800219960164914480160C1
:100090000121996001BC002800D000471248134993
:1000A000086003C880F30888084703B5996A0420EC
:1000B0000142FBD001200142F8D103BD02B5186610
:1000C0001866FFF7F2FF186E186E02BD00000240BE
:1000D000000000180000070000035F00212200005C
:1000E000F4000018222000A00001001008ED00E03C
:1000F00000000000000000000000000074B24E7A12
:1001000000200420F7010010CB010010CD010010E9
:10011000C9010010C9010010C9010010C901001077
:10012000C9010010C9010010C9010010CF01001061
:10013000C9010010C9010010D1010010D301001045
:10014000C1010010C1010010C1010010C101001067
:10015000C1010010C1010010C1010010C101001057
:10016000C1010010C1010010C1010010C101001047
:10017000C1010010C1010010C1010010C101001037
:10018000C1010010C1010010C1010010C101001027
:10019000C1010010C1010010C1010010C101001017
:1001A000C1010010C1010010C1010010C101001007
:1001B000C1010010C1010010C1010010C1010010F7
:1001C000EFF30580103800BE00BE00BE00BE00BECA
:1001D00000BE00BEF2EB8871A0A40010C0A4001005
:1001E0003802001090A31AE71E481F49086006C88D
:1001F00081F3088810471D480068002801D019487D
:10020000F3E70DA40ECC002902D000F012F8F9E7B4
:100210001749184A002000E001C19142FCD116495B
:100220008847164988471649884700BEFDE701C937
:1002300001C29A42FBD37047C0A40010C000002046
:100240008815002088B90010000004200000042058
:1002500088B90010001004200010042000000000E5
:10026000704700000000000008ED00E0000000D032
:100270008815002008A5012061400010D905001054
:100280001D400010F8B5C04610B5064C2378002B71
:1002900007D1054B002B02D0044800E000BF01232A
:1002A000237010BD1017002000000000148D0010F6
:1002B000044B10B5002B03D00349044800E000BFF5
:1002C00010BDC0460000000014170020148D00105F
:1002D000F0B583B000220421032000F057FA484B08
:1002E0009A6A6B46DA80D0231B0620229A61454C1D
:1002F00023689B01A022D20594466344424A1A60B7
:10030000424B1A68930163444149596001231D001F
:10031000954060468621C90045502468A34043505B
:100320009301A021C9058C4663441B69DB01F7D406
:10033000344B1A689301A021C9058C4663441B699C
:10034000DB01F7D4D0231B0620225A612F4B1A68F9
:1003500093016344DB68C021C9050B4228D12D4BB2
:1003600018680630C021490201F068FE0C002A4BD3
:100370001A68EFF3108572B61368002BFCD0BFF338
:100380005F8F264B1B68A34230D0214B5B781F2B1D
:1003900019D9214B1B68BFF35F8F00221A6085F3C8
:1003A000108801320421032000F0F0F903B0F0BD01
:1003B0001B490B4092016244D360012204210320B7
:1003C00000F0E4F9F2E7134E3068164FC0191049F7
:1003D0000422013102F02CFD30680430C0190222E1
:1003E0006B46991D02F024FD3460D2E70E4A136873
:1003F0000133136000220421032000F0C7F9D5E780
:1004000000400540E0A40120700C0020CCA2012097
:10041000C4A20120F8A40120081E0020B8A20120D7
:10042000FFFFFF9F501E00207C9E012010B53C4B1B
:100430001A683C4B0C2A65D83B490B40D202134347
:100440000C22934308210B4338490B4038490B4099
:1004500038490B4001210B4337490B4002218B43A4
:100460009343364A134080221203134310229343CE
:100470001343103293432A4A1168314A8901A0205C
:10048000C00584466144002008604A6005308860E9
:100490000B612C4B1968234B0C293AD82248034096
:1004A000C9020B430C218B43082003431F48034020
:1004B0001F4803401F480340012003431E480340D8
:1004C000022083438B431D490B40882109030B43C2
:1004D00010218B4310318B430B431A490968890162
:1004E000A020C005844661440A6000224A600532AB
:1004F0008A600B61144B043A0421032000F092F946
:1005000030BF10BD2A21114B114AFF31114803F0B1
:1005100089FD2A210D4B0E4AFF310E4803F082FD62
:10052000E0A4012010801F00FF87FFFF3FF8FFFFBE
:10053000FFFFBFFFFFFFDFFFFFFF7FFFFF7FE0FF4A
:1005400008C00340CCA20120D1020010188D001079
:100550008C8D0010388D0010F0B587B0042100207C
:1005600000F0FAF8052001F0DFFA164901F066FD07
:1005700083B29C466A460024009454609460102123
:1005800051601149916003A90D00C8CAC8C5000493
:10059000000C05900D4A14609460D46005981061B9
:1005A00004995160012103980143116063465B087F
:1005B000074A126853401B041B0C064A136007B01D
:1005C000F0BDC04680A81201FFFF000000000540FA
:1005D0000C0005400C10054010B51F4CA54403F05D
:1005E000A1FEFA20C00001F0FFF8FFF7B5FF0120DF
:1005F00006F010FE194C2060012006F00BFE184B8F
:1006000018602368002B01DB002800DAFEE70120D8
:1006100000F0C0F900F0DEF9124B1860124806F045
:1006200085FE8022D200AA21684602F0FBFB0F4B18
:100630001B689B688022D2000121684607F0EEF912
:100640000B4A1368013313609B07F0D1074B1B68FB
:10065000986806F053FFEAE700FCFFFFE0A40120E2
:10066000CCA20120081E00202D0400103C0D00200B
:100670004C1E0020F8B5CE46474680B5D0231B0659
:100680001F68BA00204BD3589846002F03D01F4B49
:10069000994600262AE01E4B9946FAE7EB4012E005
:1006A00024090135002C20D033000833AB421CD97B
:1006B0000F23190021402342F2D0BB00154A9B585A
:1006C000202DEBD40023DB07EAD407222A40920036
:1006D000EB08080090403C339B000F4A985043467B
:1006E000002BDDD02800C047DAE708361D2E06D8DB
:1006F000F30808339B004A469C583500D2E7C0BC3B
:10070000B946B046F8BDC0460C1E0020304101403D
:1007100000410140B0A201200040014030B5072453
:100720000440A400C008A14004003C34A400094DCA
:10073000615180001818002A05D080239B019C4637
:100740006044016030BDC0239B019C466044016051
:10075000F8E7C0460040014010B58300084A9A18E7
:10076000126840245440C0222240064CA4466344F0
:100770001A60C000044B9C466044416010BDC046F6
:1007800004C0014004D001400040014070B50600A3
:100790000D00141E0BD1D0231B061B68002B11D09B
:1007A000094B220029003000FFF7B8FF70BD0D2073
:1007B00000F0D8F90028EED1044B054ABD210548C8
:1007C00003F030FC044BECE730410140A88D0010F1
:1007D000188E0010D48D00100041014070B5040047
:1007E000D0231B061D68AA000C4BD358002B0AD03F
:1007F000002803D0AD00094BEC5070BD08490D2016
:1008000000F006FBF6E70028F7D0AD00034BE850F8
:10081000002203490D2000F0DFF9EEE70C1E002056
:100820007506001070B505000E0014001800FFF7E3
:10083000D5FF220031002800FFF7A8FF002C00D1CF
:1008400070BD01210D2000F065F9F9E710B5802396
:10085000DB0518680205120D030B1B041B0C09496C
:100860008A4203D1022B07D1000F10BD064B074A65
:100870001321074803F0D6FB064B044A1421044811
:1008800003F0D0FB27090000308E0010AC8E001062
:10089000548E0010988E00100FB400B583B0084835
:1008A00003F044FD049B002B07D005A9019118001B
:1008B00003F04CFD034803F039FD012003F05EFB1B
:1008C000C08E0010D08E0010EFF3108072B6034B74
:1008D0001B68002BFBD0BFF35F8F70472C0100D04B
:1008E000BFF35F8F024B00221A6080F310887047BD
:1008F0002C0100D0F8B506000C001500FFF7E4FF4E
:10090000E308F718F15C07222240012393400B42D1
:1009100005D1DBB20B433B70FFF7E2FFF8BD2100CE
:100920002800FFF7B9FFF0B583B00600019114006D
:100930001F00FFF7C9FF00E00134BC420CD8E308F8
:10094000F518F35C0721214001228A401A42F3D1B5
:10095000D2B21A432A7001E001246442FFF7C0FFBB
:10096000002C02DB200003B0F0BD019B002BF9D06E
:100970000898FFF791FF0000054A1078431CDBB28E
:100980001370172B02D9130010221A707047C0463B
:10099000750C002000B583B00100044B00931F23A9
:1009A00018220348FFF7BFFF03B000BDD48E00102C
:1009B0001C1E0020002307E0054A9A189200BFF38E
:1009C0005F8F0021116001331F2BF5D97047C0469E
:1009D0004000003410B51F2808D8074B9C466044DF
:1009E0008000BFF35F8F0023036010BD034B044AF8
:1009F0000F21044803F016FB40000034F08E001075
:100A0000648F00100C8F0010074B9B681030800023
:100A10001950BFF35F8FBFF35F8F044B0021196044
:100A200082F310887047C04600ED00E0240100D03A
:100A30000048704700E400E010B5FFF7F9FF00231D
:100A400002E0034A04C00133072BFAD910BDC046A7
:100A50008080808010B5091A081F0B4B9C466144AA
:100A60000A4A914208D8C30706D440104005400DF9
:100A7000074B184380B210BD8721064B064A490038
:100A8000064803F0CFFAC046FC070000FE0F000046
:100A900000E0FFFF748F0010F0910010A48F001091
:100AA00010B5091A04394C08090B08D14905490D3C
:100AB000064A11430180064B2343438010BD8B211E
:100AC000044B054A4900054803F0ACFA00F0FFFF6B
:100AD00000F8FFFFE88F0010CC910010A48F0010E9
:100AE00001238340034A10681840431E9841C0B256
:100AF0007047C04600E100E0002A05D0044BC02248
:100B00005200995019607047014A8023D150FAE78A
:100B100000E100E010B50A001F23034001219940C5
:100B20004009FFF7E9FF10BD01238340014A13602C
:100B30007047C04600E200E0024B9B681030800026
:100B4000C058704700ED00E010B5FFF7F5FF044B0B
:100B5000C31A00202F229A424041C0B210BDC046A5
:100B6000780C002010B5FFF7E7FF002806D0044BF3
:100B7000984201D0012010BD0020FCE70020FAE7D8
:100B8000C101001070B504000D00EFF3108672B6BD
:100B90000C4B1B68002BFBD0BFF35F8F2000FFF7CF
:100BA000CBFF094B984201D0A84205D13200290061
:100BB0002000FFF729FF70BD044B054AED210548D1
:100BC00003F030FA240100D0C1010010F88F0010AA
:100BD00024920010A48F0010F0B5DE4657464E4612
:100BE0004546E0B589B0814601911500EFF3108BC1
:100BF00072B6754B1B68002BFBD0BFF35F8F734B36
:100C00000027DF57002F3FDB7C00E419A400704869
:100C100024180622A2566D4B1A706E4B9A684B46EA
:100C200010339B00D35898461B1A2F2B3AD96A4B86
:100C3000984530D105AE694B33807B009A46D81970
:100C40008000634B9846404402306549FFF702FF3D
:100C50007080644BB380FF23B371F571019B0793E0
:100C60005744BF0047440ECE0EC701231C43A04685
:100C70005A4641464846FFF7C7FE09B0F0BCBB469E
:100C8000B246A946A046F0BDBE21574B574A49007F
:100C9000574803F0C7F98421564B544AFF31544852
:100CA00003F0C0F9012342469A439246101A0C21E0
:100CB00001F0C4F900290FD153460026DA79AA427F
:100CC00012D90621595600290DDB4A00521892000C
:100CD0001E003F4B9B18F1E7CA21474B434A49008E
:100CE000434803F09FF91E00002E3BD005AB434A5A
:100CF0001A80813A5A800623F3560293002B17DAA2
:100D00003F4805AB9A469880029A9A71DD71019A24
:100D10000792301D2100FFF79DFEB080B7717B0068
:100D2000DB199B002A4FFF18534607CB07C79FE7E5
:100D30007800C0198000264BC0180430321DB388DB
:100D4000D90A1C2907D15B055915023149005118F0
:100D5000FFF780FED5E78E212A4B2B4A4900244815
:100D600003F060F905AE1D4B33807B000293D81968
:100D70008000174A9046020042440392901C184992
:100D8000FFF768FE7080039A101D5146FFF762FE60
:100D9000B0801E4B52464146521A524153431B0DDE
:100DA000B371F571019A0792029B9C466744BF009C
:100DB00047440ECE0EC7114B52461380813B5380E1
:100DC00001231C43A04653E7240100D002A50120C3
:100DD000780C002000ED00E0C101001000A1FFFF31
:100DE000A80C002001BDFFFF309000100C920010F5
:100DF000A48F00105890001080900010014800004F
:100E000001BD000004910010FC910010AAAA00008E
:100E1000F0B5CE46474680B583B006000D00EFF32F
:100E2000108872B6564B1B68002BFBD0BFF35F8F48
:100E3000544B9A6834001034A300D758524B9F4249
:100E400007D0AF4200D198E00197504BFB1A2F2BEF
:100E500009D9424639003000FFF7D6FD03B0C0BCC7
:100E6000B946B046F0BD3000FFF73AFE814600219A
:100E70003000FFF74FFEBFF35F8FEFF305810029CE
:100E800001D08C4211D10123019C9C430022A36814
:100E90009D4211D00622A256002A0CDB53009B185B
:100EA0009B002200394CE418F1E7394B394A3A49A2
:100EB0003A4803F0B7F822009D4257D106256557FE
:100EC000002D39DB6B005B199A00304B9B189A6838
:100ED000A260DA79E27106229A56A2719B795BB21E
:100EE000002B0FDA2E48A0806B005B199B00274A6D
:100EF000D3182C4A11789971157049463000FFF7C4
:100F000009FEA6E7201D6B005B199B001F4A9B187A
:100F10001A1D9B88D90A1C2907D15B055B15023372
:100F200059005118FFF796FDDDE78E211E4B1F4A31
:100F300049001A4803F076F8002912D1002A0ED091
:100F4000FF2393711A4B9380164A1378A371194BA0
:100F50000E49641A644163431B0D1370CDE70A4FB9
:100F6000F2E7201D1449FFF79BFDC6E79121134BC3
:100F7000084A8900094803F055F8034F69E7C0465D
:100F8000240100D000ED00E0C1010010780C002029
:100F90001C910010DC91001002020000A48F0010D0
:100FA00001BD000002A5012004910010FC91001079
:100FB00001BDFFFFAAAA0000B20C00205091001052
:100FC00070B5012101432C4BCB1A2F2B28D8EFF3FE
:100FD0000583002B2AD0EFF3108C72B6274A1268D3
:100FE000002AFBD0BFF35F8F254A0400224D641B0B
:100FF00064416243120D54B2224A92689B00D25857
:101000008A4219D00022032A30D853009B189B0033
:101010001949CB189B795BB2A3421DD00132F2E78C
:10102000194B1A4A1A491B4802F0FCFF1A4B174A7F
:101030001A49184802F0F6FF124A92681849D1502E
:10104000184B1A7882711C70BFF35F8F0B4B002214
:101050001A608CF3108870BD0D0053009918890038
:101060006918FF268E71104A8A80E9E70F4B074AFC
:101070000F49084802F0D6FF780C0020240100D068
:10108000AAAA000000ED00E058910010B0910010F5
:101090007F020000A48F00108091001082020000E7
:1010A000C101001002A5012001BDFFFF8C910010BD
:1010B0009302000000B583B00100064B00930523A6
:1010C00000220548FFF72FFC002801DB1F23181A18
:1010D00003B000BD9491001006A50120024B9C4670
:1010E00061448900016070474000003410B504007D
:1010F000FFF742FC01002000FFF7F0FFFF23237100
:10110000BFF35F8F10BD10B50400FFF735FC010081
:101110002000FFF7E3FFFF23237100236371BFF378
:101120005F8F10BD10B50D4C09E00D4B0D4A1A2113
:101130000D4802F077FF2000FFF7D8FF08340B4B73
:101140009C4209D22368002BF5D0012BEDD1200061
:10115000FFF7D9FF0834F2E710BDC046781500202C
:101160004092001018930010609200108815002023
:10117000034B9C46614489000160BFF35F8F704759
:101180004000003410B504000120FFF703FC01000B
:101190002000FFF7EDFF10BD00040843704700007A
:1011A0000A4B1A68EFF3108172B61368002BFCD05B
:1011B000BFF35F8F054B1B68BFF35F8F00221A6080
:1011C00081F3108840BF002000217047D4A4012083
:1011D000F0B5DE4657464E464546E0B585B0EFF3DE
:1011E000058303221A4093469200B34BD358984686
:1011F0001B785B4507D101235A4693401A0003939D
:10120000AE4B1A6015E1AE4BAE4A9221AE4802F0E9
:1012100009FF5B004B44DB004246526992469A4408
:1012200053469E68DF68A94800F0B0FB801BB941B7
:10123000002900DA07E1002F60DB53461C69A44B4C
:101240009C4244D043460820185E5346598889B2D0
:10125000FFF7A2FF53465969A04704000D00230081
:101260002B434BD0002D3CDA30003900001BA94144
:10127000009001915346009801999860D96000252B
:101280005D5F002D00DADEE043465C696B005B19B0
:10129000DB00E3189A68DB68801A9941002900DABC
:1012A000D1E043461D81474608370023FE5E002EED
:1012B0001FDB7500AD19ED006519009A019BA86848
:1012C000E968121A8B41002B13DB2F00EDE7534620
:1012D0005C6920002369984700280FD0656824685E
:1012E000BDE77A4800F052FB001969410090019176
:1012F000C0E753461E804B463B80A4E05346002285
:101300009B5E424613811269EFF3108372B6116837
:101310000029FCD0BFF35F8F42460221525E514646
:101320000A804246494651801269BFF35F8F00210F
:10133000116083F3108886E043461A69EFF3108149
:1013400072B61368002BFCD0BFF35F8F43469B88B7
:101350001BB2994601235B42424693801369BFF357
:101360005F8F00221A6081F3108818E026000023A6
:10137000F55E002D0BDB6C006419E4003C19009A4B
:10138000019BA068E168121A8B41002BEEDA4B46F4
:101390003380634600229B5E994663461D804B4620
:1013A000002B56DB43465F694B465B004B44DB003A
:1013B0009C46BC446346DC689B68009301944646A7
:1013C0000836D4E70023424693714146083143462C
:1013D0000820185E11E001225242D317A260E36098
:1013E000434608229B5E834206D00D804346082276
:1013F0009B5E2380434618812800431C2DD0434622
:101400005A6943001B18DB00D418D55E63881BB2F1
:10141000002BE0DB2100EFE75B4604339B002B4A07
:101420009C502A4800F0B2FA241A8D41002D3ADC73
:1014300037D0264B039A5A63434608229B5E99464F
:10144000002B00DBE5E643469B881BB2002B00DB4C
:1014500072E743469B79002BB4D1434608229A5E3B
:10146000002A20DB53009B18DB0042465269944659
:1014700063449C68DD68631C01D16B1CD1D0134BA5
:10148000996A601A5A4604329200D3585B1A9842FD
:10149000C2D30E4B1A6A012359468B401342C0D166
:1014A000BAE7002CC5D040BF05B0F0BCBB46B24681
:1014B000A946A046F0BDC046A0A201203C70054050
:1014C0002C93001020940010589300100040054009
:1014D000D1110010F8B5CE46474680B506008846C3
:1014E00091461F00C160FFF747FA1B4B9C466044C2
:1014F000800030614B463370BBB27381D02212063C
:1015000012787270012252423281B2809B1873802D
:10151000002406E0631E65002D19ED007269535327
:101520000134BC42F6D34B469A000C4BD6500124F2
:101530004B469C4043461C6209494846FFF722FB44
:1015400001214846FFF7E6FA064941440C60C0BC59
:10155000B946B046F8BDC04640000034A0A2012004
:10156000D11100103820000010B5064B1B69002B6C
:1015700001D0044810BD044B044A6521044802F020
:1015800051FDC046C00C0020949300100894001038
:1015900058930010F0B5C64600B504000069EFF39B
:1015A000108C72B601680029FCD0BFF35F8F022156
:1015B000665E7500AD19ED00616988464544002EF0
:1015C00002DB0020295E61802169BFF35F8F00206C
:1015D00008608CF31088002E2EDB0699296107998C
:1015E0006961AA60EB606B8801335B04590C002BC6
:1015F00000D1012169803000FFF7CEFD2269EFF3B1
:10160000108172B61368002BFCD0BFF35F8FA388E4
:101610002B80A6802369BFF35F8F00221A6081F3BD
:101620001088E368217801328A4005498C4663447A
:101630001A6080BCB846F0BD01204042F9E7C046C0
:101640003C20000070B582B0060014001D0008ABFD
:101650001B78002B07D100F0CBF922002B00121AC7
:101660008B41002B0ADB079B0193069B0093220012
:101670002B003000FFF78EFF02B070BD0020FBE7AB
:1016800010B5030008145A8990422FDA420012184C
:10169000D2005869844662441C69EFF3108C72B61C
:1016A00020680028FCD0BFF35F8F508880B2090407
:1016B000090C884212D000201A69BFF35F8F002105
:1016C00011608CF31088002811D0DA681B78013182
:1016D0009940074B9C466244116008E00549084365
:1016E00080B2508001229A710120E5E7002010BDF0
:1016F0003C2000000080FFFF40787047F0B585B0C7
:1017000006000F00EFF30583002B1AD10624644274
:10171000E517A4197D418D4202D803D1844201D935
:101720000024002500F064F922002B00121A8B41DE
:10173000002B0BDC08D03000390000F06BF905B04D
:10174000F0BD1C48FFF7A8F8002AF4D0FFF70CFF03
:10175000002302930193184B009322002B00FFF704
:1017600071FF002818DAE6E7002300E00023002BD1
:10177000E1D1124B1A68EFF3108172B61368002B97
:10178000FCD0BFF35F8F0D4B1B68BFF35F8F002250
:101790001A6081F3108820BF094B5B6A9D42E5D82F
:1017A0000749896AA14203D29D42DDD00123DEE7C9
:1017B0000123DCE7B8930010A1110010D4A401208C
:1017C0000040054070B504000D0000F011F900194B
:1017D0006941002902DBFFF791FF70BD0120404203
:1017E0000049F8E7FFFFFF7F10B5FA2292000023BF
:1017F000002101F05DFAFFF7E5FF10BDF0B5CE4620
:10180000474680B585B005000C00EFF30583002B3B
:1018100015D0474B5B6A8B4209D3454A926A824294
:101820000BD28B4201D0012002E0002000E000201A
:1018300005B0C0BCB946B046F0BD0120F8E7FFF7DF
:1018400093FEC3689946037898462E0027004846C1
:1018500000F09CF802000B00B61A9F414346043387
:101860009B004A469B58181A0023BB420FDC0CD041
:1018700020BF2F4B5B6A9C4224D82D4A926AAA4211
:1018800022D29C421CD00120D2E7B042F0D9FFF70F
:101890006BFE002302930193264B00932A00230042
:1018A000FFF7D0FE061E11DD214B5B6A9C4221D85A
:1018B0001F4A926AAA4232D29C4219D001231AE0EE
:1018C0000020B5E70020B3E70120B1E7184B5B6AC1
:1018D0009C4209D8164A926AAA4207D29C4201D079
:1018E0000120A5E70020A3E70020A1E701209FE752
:1018F000002300E00023002B00D120BFFFF734FEBF
:101900003100FFF7BDFE0A4B5B6A9C420BD8084AC8
:10191000926AAA4209D29C4203D0012088E701239F
:10192000E9E7002084E7002082E7012080E7C04645
:1019300000400540A11100100048704700400540DC
:1019400010B50B4B1B69002B04D00A210948FFF787
:10195000C5FB10BDFFF7F0FF0400032100F00CF8F9
:101960001023032221000248FFF7B4FDEDE7C04633
:10197000C00C0020D4A4012010B5024A0248FEF792
:10198000B9FF10BD40940010201E00200200436AE1
:10199000906A1900536A9942FAD17047416A00E08F
:1019A000416A9942FCD300E0416A994202D1816ABE
:1019B0009142F9D37047F0B5C64600B58046140091
:1019C0001D00FFF7E3FF06000F0022002B00921915
:1019D0007B41994202D804D1904202D9012252425D
:1019E000D3174046FFF7DAFF80BCB846F0BD0000D1
:1019F00010B50248FFF7CAFF10BDC04600400540C1
:101A000010B502000B000248FFF7D5FF10BDC0461D
:101A10000040054010B502000B000248FFF7BEFF72
:101A200010BDC04600400540F8B5D646474680B5D3
:101A300006000D001700984644002418A400294B06
:101A40009C4664446368089A934200D26260331FE4
:101A5000DBB29A46012B2ED980221201C0239B01B2
:101A6000E3181A60B300204A9958002907D050693A
:101A700000F0E4FA431C5800C0180338FDD27F017F
:101A800022685740E022174080235B01E3181F6063
:101A90005246012A1AD980239B01E31880221201A1
:101AA0001A60089B6360B6000F4B4246F250C0BC00
:101AB000BA46B046F8BD012DCED10322C0239B010A
:101AC000E3181A60A368DB07FCD5D8E721686940F2
:101AD00003220A401A60A3680122AA401A42FAD0DF
:101AE000D9E7C04600800040241E0020F0B583B036
:101AF00005000E0017001800089900F09FFA030077
:101B0000089A140200943A0031002800FFF78CFF75
:101B100003B0F0BD10B582B0802464000094FFF7DC
:101B200083FF02B010BD00008000014BC058704719
:101B3000241E0020F0B5C64600B504000E001700B4
:101B40001D00364800F07AFA8046354BFA18354BBE
:101B50009A4238D80100380000F070FA0200103ABA
:101B600098235B009A4234D86B1E062B37D8069B0D
:101B7000013B062B33D83F09474536D32D04069B3E
:101B80001A0315432368002B35DB274B9C4243D0B7
:101B90000C2301229A40254B1A60254B1A60254BD5
:101BA0001B6811009943FAD12660A060224BE2180D
:101BB000212313602368002BFCDAE56008231360FF
:101BC00080BCB846F0BD1D4B1D4A11211D4802F0D6
:101BD00029FA1D4B1A4A19211A4802F023FA1B4B05
:101BE000174A1C21174802F01DFA194B144A2321E9
:101BF000144802F017FA22683F231340B342C4D1BD
:101C0000A3681B051B0D8342BFD1E368EE22D202FD
:101C10001340AB42B9D1D3E70D23BAE7001BB7009D
:101C200080E84BD380F8A93200C0024000E00040B9
:101C300000F0004008C00040043000006494001030
:101C40007C950010B4940010F894001014950010C6
:101C500060950010024B1A68024B5A607047C046EC
:101C600090A201200080054010B50200164B802094
:101C7000C0051860154B1648186000290AD0154B8E
:101C8000E021C9041960002A09D1124B80221206F2
:101C90001A6010BD0C4BE021C9041960F3E7530131
:101CA0009B1A9800801800010B4B186080235B047E
:101CB000984202D3084B094A1A60FFF7CBFF054B45
:101CC0008022D2051A60E4E700B0054008200140F8
:101CD000FCFF010000A0054090A20120FFFFFF00D3
:101CE00010B5030010000C4A8024E4051460002B9A
:101CF0000DD001221343094A094CD461094C5C40C0
:101D00001462516293620021FFF7AEFF10BD034BD6
:101D10000022DA61F7E7C04600B0054000800540C8
:101D2000D3C007B02D3FF84F80239B000B43014ADF
:101D3000D36270470080054010B5010018231B884E
:101D400014221088984710BD10B5010018231B8875
:101D500016221088984710BDF0B5C64600B507009A
:101D60000E0000250123984600E00135B5420AD255
:101D7000AC003C192068FFF7DFFF20600028F4D199
:101D800000239846F1E7404680BCB846F0BD00000D
:101D900070B504000D000648FFF7CEFF0300002CCD
:101DA00003DB0120A040290098470020FBE7C04644
:101DB00055420000074BAA2212011A608D225200E0
:101DC000DA60054B054A1A60024B5B68002BFBDAB0
:101DD0007047C046004002400060024000B0FA0078
:101DE00010B5040001E008CC9847024B9C42FAD39E
:101DF00010BDC0460C8D00107047000010B50248A1
:101E0000FFF7EEFF10BDC046D08C001010B50248A1
:101E1000FFF7E6FF10BDC046048D0010054B064AD3
:101E20001A60064B064A1A60064B1A68044B934325
:101E3000FAD1704700E00040BFCDFBFE00F000404B
:101E4000FE7F3C0008C00040044BDB6C002B03D13C
:101E5000034B8022D2021A607047C0460000115026
:101E60004C201150044B054A1A60054B1B68DB439C
:101E7000DB01FAD17047C04600F00040FFFFFF01D0
:101E800008C00040034B40229A675A671A67DA6617
:101E90007047C04600F0014010B5FEF78BFD10BD45
:101EA00010B50C4A0C4BD21A92101400302A00D9EB
:101EB000302292000849094800F0BAFF04E0A2006D
:101EC0000749064BD15001342F2CF8D9034A054B52
:101ED0009A6010BDC0010010000100100000002039
:101EE000C101001000ED00E070B50420FFF71CFEFA
:101EF000064900F0A3F805000024002C00DD70BDA9
:101F0000E0B22900FFF710FF0134F6E740420F006E
:101F100030B583B0274B00229A67FFF74BFF264B63
:101F200001221A60234B5B6C012BFBD1234B032254
:101F30001A60204B9B6B012BFBD1013300930433C0
:101F40001F4A01211F48FFF7F5FD052300931E4A94
:101F500001211E48FFF7EEFD1D4B00220221042047
:101F6000FFF7D8FD1B4D2B00002201210520FFF7B4
:101F7000D1FD194C2300002200210720FFF7CAFDE4
:101F80002300002200210820FFF7C4FD8023DB008E
:101F900000932300002200210920FFF7A7FD2B005A
:101FA000002200210620FFF7B5FDFFF79DFF03B0DB
:101FB00030BDC046008000403CB0004030B0004022
:101FC000002F685900800240008C864700C0024004
:101FD000001BB70040597307006CDC020148042164
:101FE000014B1847E00C0020591D0010124A936F56
:101FF0009B0815D29066D166002905D0FFE7FFE760
:10200000FFE7516F106F704704B580210906C217B2
:102010005140002800D0C84306F012FE002104BD44
:10202000F0B5146E556E576F166FFFF7E3FF146629
:10203000556657671667F0BD000000D0114A936FD0
:102040009B0813D210665166002905D0FFE7FFE711
:10205000FFE7516F106F704704B5002801D00020D2
:10206000C04306F0EDFD002104BDC046F0B5146E7E
:10207000556E576F166FFFF7E5FF14665566576785
:102080001667F0BD000000D094464A4A926F92084D
:10209000624601D228E0C046F0B5464E346E756EF9
:1020A000776F366F00F020F89446424A1466556602
:1020B000576716676246F0BD94463E4A926F920893
:1020C000624601D254E0C046F0B53A4E346E756EA9
:1020D000776F366F00F04CF89446364A14665566B2
:1020E000576716676246F0BD002B24DB11D000292C
:1020F0003EDA00B5C943404200D1013100F038F862
:10210000C943404200D10131DB43524200D1013387
:1021100000BD002AEBD1002801D1002905D0002004
:10212000C90FC90701D1C043410800B506F080FDC1
:102130000022002300BD00B500290ADBDB43524228
:1021400000D1013300F014F8C943404200D10131FD
:1021500000BDC943404200D10131DB43524200D1AE
:10216000013300F005F8DB43524200D1013300BDDA
:10217000002923D1002B18D1002A0CD0BC460D4FCA
:1021800038667A6600210023FFE7FFE7FFE77A6FF2
:10219000386F67467047002801D00748010000B536
:1021A00006F046FD0022002300BD02000B000020C7
:1021B00000217047000000D0FFFFFFFF002B00D080
:1021C000BFE0130C28D1002AE7D080B4114F396644
:1021D0007A66FFE7FFE730B4040C7B6F396F1B04AE
:1021E00023433B667A66FFE7FFE7FFE7C04684B21A
:1021F0007B6F3D6F1B0423433B667A66FFE7FFE777
:10220000C04600232C042D0C7A6F386F00196941E9
:10221000B0BC7047000000D0F0B594460025140E05
:1022200001D112020835140F01D112010435940FA7
:1022300001D192000235D40F01D152000135D40BE7
:102240000134254F7C66254C3C660E0C93B2FFE7AB
:10225000FFE7FFE73C6F6643360C7703BE467343E8
:10226000DF0B5B04C01AB941130C7343DB18C91AA6
:10227000CE086643360CB64493B273431F0F1B015E
:10228000C01AB941130C73431F0B1B05C01AB94187
:10229000860D8F023E436643360C092D24DB520A1D
:1022A0007243801A7703460A6643360C16235B1B7B
:1022B000DE40DF40BF1964466643821B704604352A
:1022C00006330100D940A840C01900D30131A24211
:1022D00006D20023F0BD0000000000D0FFFFFFFF8A
:1022E000121B0130F3D3F1E709277F1BFE40644640
:1022F000A2B27243801A00D20139220C7243130C2D
:102300001204821A99410B007046043513370100FC
:10231000F940A840801900D30131002B02D1A2421C
:102320000AD2F0BD013000D30131121BFAD2013BB9
:10233000F8D1A24200D2F0BD013000D30131121B0E
:10234000F7E7F0B51C0C00D080E00CB400251C0AA7
:1023500004D11B02160E3343120208351C0B04D1A4
:102360001B01160F3343120104359C0B04D19B0053
:10237000960F334392000235DC0B02D192185B4179
:1023800001351C00971864410134464F7C66464C69
:102390003C660E0CFFE7FFE7FFE7C0463C6F664375
:1023A000360C7703BE4697B27743C01B00D2013983
:1023B000C01B00D201399FB27743C91BC91B170C40
:1023C00077437E04FF0B801BB941CE086643360C71
:1023D0000C2D33DBB644120B1F053A431B0B97B28F
:1023E0007743C01B00D201399FB27743C91B170C3A
:1023F00077433E043F0C801BB941860D8F023E435C
:10240000664329277F1BFE400C3D7746AF40BF192E
:1024100030BCA2B2ABB272437343801A9941220C12
:102420007243130C1204801A994102000B00013709
:10243000001BA941F9D2781E0021F0BD0C277F1B9B
:10244000FE4077467F0BAF40FF19E0E700245D1C9C
:1024500007D0144F7D663966FFE7FFE7FFE7FFE728
:102460003C6F95B29EB265436643401BB141150C6B
:102470001E0C6543664336042F0C3E432D04401B5F
:10248000B141994204D202000B0020000021F0BDAE
:1024900001D19042F7D3801A994101349942F2D385
:1024A000F6E70000000000D0FFFFFFFF484041407A
:1024B000484018B41B4B5B68FC46019308BD04DF21
:1024C0008327001018B4174B1B68FC46019308BD06
:1024D00000DF8D2700109446134A926F920809D2AC
:1024E000624618B40F4BDB68FC46019308BD0CDF55
:1024F000452A00100C4AF0B5146E556E576F166FD2
:102500006246FFF7EEFF084A14665566576716677E
:10251000F0BD18B4034B9B68FC46019308BD08DF6F
:10252000E9280010D0A20120000000D0FFB55040E3
:102530004240504059404B40594000E0FFB5154FD4
:102540004C00640D03D0BC4204D10C0314D800200D
:10255000090D09055C00640D03D0BC4204D11C03C5
:102560000AD800221B0D1B0501264B4009D44B4005
:1025700003D58B4200D18242FFBD9942FCD19042EB
:10258000FFBD0B43DB1803431343F5D0C943491880
:10259000FFBD0000FF07000000B5FFF7CFFF80413F
:1025A00000BDC04600B5FFF7C9FF01D9002000BD3E
:1025B000012000BD00B5FFF7B9FF01D9002000BD23
:1025C000012000BD00B5FFF7B1FF804100BD012033
:1025D00040054A00121804D85A00121801D80020E9
:1025E00070470120704700000021002805D1704786
:1025F000C1174840401AFAD0C90713B5064B1B68EB
:1026000098470CBC441CA2401005120B0349091B3F
:1026100009051943114310BDD0A301201F04000078
:1026200010B54C00620D8023D218DB00D21A5B0576
:102630007E2A10DD9E3A13DACC17090349081943A4
:102640005242D140640001341532202A05DAD040CC
:102650000843604310BD002010BD0846604310BD14
:10266000C80FC018013810BD18B4044B5B6AFC4693
:10267000019308BD24DFF52B00100000D0A201203B
:1026800070B513231C78012C14D0012C14DC022CFF
:1026900002DC1F4A1F4B9A641F48FFF74DFB1F4B7C
:1026A000186070BD99001A481A4A885001331F2BD0
:1026B000F8D9EAE70023FAE71948FFF745FB0500D8
:1026C0001848FFF741FB023803789B007F2B19DD88
:1026D000802229000F4800F0ABFB022CD7D1124B0F
:1026E0001A88B5231B029A4209D1104B1A88104B45
:1026F0009A4204D10F4B1A880F4B9A42C7D0002040
:10270000FEF7CAF80D4B0E4A33210E4801F08AFC41
:1027100049270010D0A201204C330000D0A3012093
:10272000534400005346000054380000D8380000DD
:10273000494600009C38000059460000889500106A
:1027400020960010CC95001007B56046002800D1F7
:1027500000BE01880A0A0230DF2AFAD1C9B2820813
:1027600004D3028840880004104300E00068024A55
:102770005050039007BD0000D0A201200FB403BC4D
:102780000CBCF0B50124E407634000E0F0B50C0D8B
:10279000CF0F661E3605891B640503D3C94340422B
:1027A00000D30131640D03D0661CF60A07D0E41B88
:1027B00000207F00791C89078912803C24031D0DAD
:1027C000DF0F6E1E36059B1B6D0503D3DB435242A4
:1027D00000D301336D0D03D06E1CF60A07D0ED1B3C
:1027E00000227F007B1C9B079B12803D2D032F1B2B
:1027F000661B58D4A446202E46DA20371400BC406D
:102800001D00BD40F24033412A4380185941CB0F8F
:1028100005D0C943C0430022644250415141624641
:102820004D0D28D10D0D07D100281FD0241940418E
:102830004941013A0D0DF9D0640006D3013000D3AF
:102840000131002C01D140084000013A0BD4941C06
:10285000E40A04D112051144DB071944F0BDD9077D
:10286000204B194300E0D9070020F0BD0029DDD13D
:10287000002CDBD1F0BD0132C6074008CD0728434C
:102880004908002EE1D0D9E73C2E29DA203E403716
:102890001400BC4000D00124F24014431A00BB4095
:1028A0001C43D317ACE7AC46202F08DA20360400CF
:1028B000B4400D00B540F84039412843A5E73C2F0E
:1028C0000CDA203F40360400B44000D00124F84028
:1028D00004430800B1400C43C117EAE71000190097
:1028E000002494E70000F07FF0B50C0D661E36055D
:1028F000891BE60A6405640D02D0651CED0A04D04C
:10290000002001210905803C2403A4461C0D671EFC
:102910003F05DB1BE70A6405640D02D0651CED0A68
:1029200004D0002201231B05803C2403774064442B
:1029300097B484B296B27443070C7E43150C6F4370
:1029400080B26843361802D3012000043F183004D7
:10295000350C00197D41844688B29AB250430C0C64
:1029600062431F0C7C438EB27E43921902D3012630
:102970003604A4191604170C3618674101BC81B23D
:102980009AB25143040C62431B0C5C4380B258431F
:10299000121802D30120000424181004130C40184C
:1029A00063412D185E410020474106BC88B293B2B6
:1029B00058430C0C6343120C544389B251435B18C7
:1029C00002D301210904641819041A0C0918624180
:1029D0006D1856410020474118BCF902720D114391
:1029E000F0026A0D1043ED020A0D03D16D1940414A
:1029F0004941013B124E9B1B7600B3420ED26D0043
:102A000007D30130002671416646354301D14008A5
:102A100040001B05C918E4072144F0BD0BDA01335F
:102A200006D1013004D101314F0D01D04908F2E740
:102A3000E1070020F0BD013631050020EBE7000082
:102A4000FF030000F0B51C0D671E3F05DB1BE70A06
:102A50006405640D02D0661CF60A04D0002201232E
:102A60001B05803C2403D0252D060026F6432E6648
:102A70001E096E66CE0FF619B44649004F0D02D0FE
:102A80007E1CF60A03D000200021403F3F033E1B7E
:102A9000B600B444013F7F05C91B49082E6F0136BB
:102AA00076089C02950D25437543ED137543AD13D0
:102AB00001356D10F603761B0CB4CC02450D2C438A
:102AC000A2B2B3B25A43270C7B43350C6F43A4B276
:102AD0006C431B1902D3012424043F191C041D0C50
:102AE000A4187D4124196D41009A91B2ACB26143A2
:102AF000170C7C432B0C5F4392B25A43A41802D3A9
:102B000001221204BF182204230C52187B41019C9D
:102B10006C431B19520ED9010A434401A01A81B219
:102B2000B2B2514303145A43360C734387B277430E
:102B3000D617D21900277E4136049B191704160CAC
:102B40007F185E417316ED18F3010026803375413E
:102B5000A90F06D16400690AE8055B0A184309D287
:102B60002FE00422944480337541A90AA8059B0AEA
:102B7000184326D3404149412404009A019B0D008B
:102B80005543641B4343E41A95B286B27543170C50
:102B90007E43030C5F4392B25A43B61802D301221C
:102BA0001204BF183204330C52197B4152429C412B
:102BB000002C02D40022013051414008CA071043C2
:102BC000490802B06246D7079210084BD218084B4A
:102BD0009A4203D212058918C919F0BD0020002AB3
:102BE00001DC3900F0BD01331905F5E7FD030000F4
:102BF000FE070000002200B5203200F004F80800B3
:102C000000BD000000220B150AD410B5944600F058
:102C100031F81414013400DA0021CB17144C20478A
:102C20000020002170476244343A0CD40C2A07DAA1
:102C300004009140904052422032D440214310BDC4
:102C4000D843D94310BD203207D40C469440524299
:102C500020321141D040204310BD0800C917203256
:102C600003D452422032104110BD1800190010BD8B
:102C7000272C00100A0DCC0F531E1B05C91A520534
:102C800003D3C943404200D30131520D03D0531C3A
:102C9000DB0A07D0121B00206400611C890789121F
:102CA000803A1203014BD21A70470000FF03000064
:102CB00051434343C9188C46110C83B24B4310B4A3
:102CC000040C614392B280B2504362431C041B0C5B
:102CD000001910BC59411304120CC0185141614431
:102CE0007047000070B513231D782A48FFF72CF8B1
:102CF0000400012D11D0012D09DDA31E1B789B00BE
:102D00007F2B40DD80222100234800F091F82348EA
:102D1000FFF712F8224B186070BD542201001E48C4
:102D200000F086F81F4B1A881F4B9A421CD1A7232C
:102D30009B011A881D4B9A4216D11D4B1A881D4BB8
:102D40009A4211D11C4B1A8894239B019A420BD1B1
:102D50001A4B1A881A4B9A4206D11A4B1A681A4B08
:102D60009A4201D1152307E01848FDF795FD990017
:102D70001748094A885001331F2BF8D9144A064BCB
:102D80001A62DA61B7E7134B134A4221134801F084
:102D900049F9C04653460000D4A301204C3300003B
:102DA000D0A30120EE290000C40F0000C20D0000D6
:102DB000962B0000C0B50000182B0000CC2A0000A4
:102DC00010B50000FC2C000051ED876440A30010FA
:102DD000E12D001034960010BC960010689600108B
:102DE00007B56046002800D100BE01880A0A0230FB
:102DF000DF2AFAD1C9B2820804D3028840880004CD
:102E0000104300E00068024A5050039007BD0000E4
:102E1000D4A3012001480421014B1847F00C0020E5
:102E2000591D0010014B1B6818470000F00C0020D2
:102E3000014B5B6818470000F00C0020704710B58C
:102E4000002802D00B684968984710BD0100002097
:102E500007E083001B185B00501C08601078C01846
:102E600030380A681378303BDBB2092BF1D9704750
:102E7000F0B5DE4657464E464546E0B583B093462C
:102E80001F000C9B9A460D9C0E9B99460F9B9B071F
:102E900003D0B8460F00060022E00192A346884600
:102EA0004E46B9460700B44207D2551C4B46414630
:102EB0002020B84701342A00F5E73D004F465C4624
:102EC000019B9B46B1464646B84637002E0007E0B8
:102ED000013C551C5346185D43463900B0472A0053
:102EE000002CF5D135003E0047460F9B9B0707D4C9
:102EF000100003B0F0BCBB46B246A946A046F0BDE8
:102F0000B0464E46B9462F005D46531BB342EFD242
:102F1000541C4B4641462020B8472200F5E7F0B547
:102F2000CE46474680B585B0944698460C9D0D9C8C
:102F30000EAB1B789946109A119B129EB7071CD4B2
:102F4000002B0CD0F7070AD54F46002F02D10C37C3
:102F5000374204D0013B02E030272F550134944220
:102F600001D21F2CF8D9F70707D59C4205D21F2C98
:102F700003D830272F550134F5E7F70615D5770527
:102F800005D4002C03D0944224D09C4222D00F9A26
:102F9000102A2BD00F9A102A30D00F9A022A35D03F
:102FA0001F2C02D830222A5501341F2C05D84A463E
:102FB000002A31D02D222A55013403960293019420
:102FC000009543466246FFF753FF05B0C0BCB946C3
:102FD000B046F0BD621E012C06D00F9F102F01D00D
:102FE0001400D4E7023CD2E71400D0E7B206D1D4F3
:102FF0001F2CCFD878222A550134D1E7B206CCD580
:103000001F2CCAD858222A550134C9E71F2CC7D80B
:1030100060322A550134C3E7720703D52B222A55A3
:103020000134CAE73207C8D520222A550134C4E743
:10303000F0B5DE4657464E464546E0B593B081466C
:103040008A46089209931CAB10CB1B789B461E9DA9
:10305000219B9846002C03D1102342469A43904668
:103060008023DB0046461E4042461A4212D0002C06
:1030700022D000260EE03033D9B2771C0AAB995526
:1030800029002000FEF7DAFFAC4216D31F2F14D818
:103090003E00040029002000FEF7D0FFCBB2092B30
:1030A000E9D94246920605D54121C918C9B20A3963
:1030B000C9B2E2E76121F8E7270043460693209B67
:1030C00005931F9B049303955B46029301970AABFC
:1030D0000093099B089A51464846FFF720FF13B01A
:1030E000F0BCBB46B246A946A046F0BDF0B5DE46F0
:1030F00057464E464546E0B595B0089009910A926C
:103100000B931E9E1F9C20AB1B789B46229B9946CF
:10311000239D269B9A463300234303D11033524606
:103120009A4392468023DB0057461F4052461A427C
:1031300019D0330023432DD0002714E03033DAB206
:103140007B1C98460CABDA554A462B003000210018
:10315000FEF7B2FFA5421FD819D043461F2B1BD83C
:10316000474606000C004A462B0030002100FEF7BF
:10317000A3FFD3B2092BE1D95246920605D54122CD
:10318000D218D2B20A3AD2B2DAE76122F8E7B145F0
:10319000E3D901E00023984653460693259B059307
:1031A000249B04934B4603935B460293434601934F
:1031B0000CAB00930B9B0A9A09990898FFF7AFFE96
:1031C00015B0F0BCBB46B246A946A046F0BD000013
:1031D000F0B5DE4657464E464546E0B591B08346CB
:1031E0008A460C9298461A9C08941B9D09952200C9
:1031F0002B0020002900FFF7EAF9002800D0E5E0C5
:1032000001225242D74B20002900FFF7DBF90028AA
:1032100000D0DBE001225242D34B20002900FFF70F
:10322000BBF9002800D0D1E000220023089E300026
:10323000099D2900FFF7B0F9002800D0DDE00898CB
:103240000999069007918023DB001E9A1A400D927F
:103250001E9A1A4201D106231C930698079904006E
:103260000D000A000600024300D1D1E0080D400520
:10327000400DBE4CA44660440A03120BBC4B1343E2
:103280001F00FFF7B5F9BB4ABB4BFFF742F9BB4A3A
:10329000BB4BFFF717F904000D000022B94B3000BB
:1032A0003900FFF706F9B84AB84BFFF732F90200C8
:1032B0000B0020002900FFF705F9FFF7B1F981465F
:1032C000FFF796F904000D00B14AB24BFFF721F960
:1032D0000022B14BFFF7F6F8FFF7A2F90600AF4A5C
:1032E000AF4B20002900FFF714F904000D00300057
:1032F000FFF77EF9AB4AAC4BFFF70BF902000B006E
:1033000020002900FFF7D5F804000D0002000B0093
:10331000FFF7FFF80A900B91A44BF31800261F0546
:1033200022002B0020002900FFF7CCF80E900F910F
:1033300022002B0000208021C905FFF7BAF8040005
:103340000D0000229A4B0A980B99FFF7C4F800224F
:10335000984BFFF7B7F802000B000A980B99FFF79C
:10336000BAF80022944BFFF7ADF802000B000A9860
:103370000B99FFF7B0F802000B0020002900FFF7BF
:10338000A1F802000B000E980F99FFF7A4F8002295
:10339000774BFFF797F832003B00FFF7BAF80600CB
:1033A0000F0004000D00069A079BFFF70BF9002899
:1033B00030D001235B429C46E14400227D4B30002B
:1033C0003900FFF788F804000D0023E01E9B0493EA
:1033D0001D9B03931C9B0293089A099B00920193E7
:1033E00043460C9A5146584600F0FCF811B0F0BC28
:1033F000BB46B246A946A046F0BD00230024069372
:103400000794069680231B069C46654407951AE799
:10341000002399464B466333C62B1ED804261E9BB9
:103420001B0526D52B0023430FD0644A644B069816
:103430000799FFF7BFF8002879D00022614B069862
:103440000799FFF7A9F8002871D01C9B4B4506DDB2
:103450004A46981A431E1C9303E00526DFE7002323
:103460001C938023DB001E9A1A431E920026002321
:1034700099461D9B9E4264D29F1B02231E9A1A40AE
:103480000A921E9A134202D0002E00D000274B460B
:10349000002B07D022002B0006980799FFF71BF896
:1034A000069007910022002308980999FFF774F805
:1034B000002848D1444B1E9A1340049303971C9B49
:1034C0000293069B079C0093019443460C9A514635
:1034D000584600F087F8002E00D187E71E9B9B0618
:1034E0003DD54525441C4346020051462800D84797
:1034F0004B46DA179B18534005220592013E04966D
:10350000002203920A3202924A46D00F01900093A1
:103510004346220051465846FFF78AFD0A9B002B7E
:1035200000D163E702005F460C9E1D9D54E01C9B8A
:10353000002B9ED00D9B002B9BD01C9B013B1C9312
:1035400097E7002799E7069C079D22002900802025
:103550000006844661440B0006920793AAE765259E
:10356000C0E7C046FFFFEF7FFFFFEFFF01FCFFFF5B
:103570000000F03FFB799F501344D33FB3C8608BEA
:10358000288AC63F0000F83F61436F63A787D23F98
:1035900071A379094F930A400000E03F1655B5BB6F
:1035A000B16B0240EF39FAFE422EE63FFF03000006
:1035B00000002C4000002440000018402D431CEB6C
:1035C000E2361A3F80842E41FFF7FFFF541C43462A
:1035D00051462020B8472200931BAB42F6D310007F
:1035E00004E7C046F0B5DE4657464E464546E0B5D0
:1035F00095B00690079193469946209F1E9A1F9B6F
:1036000010001900FEF7E3FF002831D101225242D9
:10361000BF4B1E981F99FEF7BFFF002837D101222C
:103620005242BC4B1E981F99FEF7CCFF00283DD19B
:103630000022B94B1E981F99FEF7C4FF002850D1F5
:103640000022B64B1E981F99FEF7A6FF002848D10E
:10365000002200231E981F99FEF79EFF002850D1DC
:1036600000239846229B5B0500D4B6E0002458E076
:10367000229B0393219B029303230193A84B009366
:103680004B465A4607990698FFF7F2FB0EE1229B3C
:103690000393219B029304230193A24B00934B4677
:1036A0005A4607990698FFF7E3FBFFE00423229AA6
:1036B0001A4022990B4210D09B4B002A0FD00422B3
:1036C0002299039121990291019200934B465A4607
:1036D00007990698FFF7CCFBE8E0944BEDE703224F
:1036E000EEE7229B0493219B039302971E9B1F9C52
:1036F000009301944B465A4607990698FFF768FDD8
:10370000D4E01E9A1F9B00200021FEF7D2FE1E90DF
:103710001F9101239846A5E70CAB30221A55013FB3
:1037200001341F2C01D8092FF6D81E981F99FEF7D7
:1037300077FF0500FEF75CFF02000B001E981F9943
:10374000FEF7B7FEFA007A4B9B181A685B680A927C
:103750000B93FEF7DEFE08900991FEF785FF060049
:10376000FEF742FF02000B0008980999FEF7A1FE40
:103770000890099100226F4BFEF724FF00282ED0FD
:1037800001363000FEF730FF02000B000A980B995B
:10379000FEF708FF002801D001350026002F2CD1AC
:1037A0002800FEF725FF02000B001E981F99FEF768
:1037B00080FE06000F0000225E4BFEF7EDFE0028A3
:1037C00046D100225B4B30003900FEF7FBFE00289B
:1037D0003ED1EB073CD501353AE0062746E700220B
:1037E000544B08980999FEF7D7FE0028D6D1002E31
:1037F00001D0F307D2D50136D0E7AA461F2C11D845
:10380000013F0A213000FEF719FC651C30310CAB7A
:1038100019550A213000FEF711FC092E0ED90600B9
:103820002C00EBE755461F2C0CD87B1E002F09D02F
:103830000CAA302111551F000134F4E72B00554626
:103840001C00F0E71F2C03D80CAB2E221A550134B4
:103850001F2C10D80A212800FEF7C8FB661C303147
:103860000CAB19550A212800FEF7C0FB051E01D03C
:103870003400EDE734000323229A1340012B1CD0BF
:103880001F2C06D84346002B32D00CAB2D221A55E4
:103890000134229B0393219B029301940CAB009370
:1038A0004B465A4607990698FFF7E2FA15B0F0BC66
:1038B000BB46B246A946A046F0BD219B002B13D0C3
:1038C0004346002B02D10C3313420FD0219B013B06
:1038D0002193190003E00CAB30221A5501348C42BD
:1038E000CED21F2CF7D9CBE72199F8E72199F6E73B
:1038F000229B5B0704D50CAB2B221A550134C8E779
:10390000229B1B07C5D50CAB20221A550134C0E7FA
:10391000FFFFEFFFFFFFEF7F65CDCD4165CDCDC14F
:1039200074970010789700106C970010689700103B
:10393000609900100000E03FF0B5DE4657464E4665
:103940004546E0B593B082468B46904611930029D8
:1039500000D1EBE200275546119B1878002800D1D2
:10396000E7E2252809D07C1C43463A005946A8477F
:10397000119B013311932700EEE7013311930024CB
:10398000119A11780B00203BD8B2102803D883007D
:10399000D048C3589F460B00303BDBB2092B2CD9D3
:1039A0002A292FD000230A93119B1A782E2A39D066
:1039B00000239A46119A1378683BD9B2122976D817
:1039C0008B00C549CB589F4601231C4301321192FD
:1039D000D6E702231C4301321192D1E704231C4392
:1039E00001321192CCE708231C4301321192C7E740
:1039F00010231C4301321192C2E711A8FFF726FAE7
:103A00000A90D1E71C9B1A1D1C921868002804DB41
:103A10000A90119B01331193C6E702231C434342D2
:103A20000A93F6E78022D20014435A1C11925A7866
:103A30001300303BDBB2092B04D92A2A07D000231C
:103A40009A46B7E711A8FFF701FA8246B2E71C9B36
:103A50001A1D1C921868002804DB8246119B013352
:103A60001193A7E70020F8E780235B002343511C54
:103A7000119152786C2A01D01C0018E0C0239B00E1
:103A80001C430131119112E080232343511C1191F9
:103A90005278682A01D01C0009E0C0231C43013180
:103AA000119104E080235B001C4301321192119BB1
:103AB00018780300253BDAB2532A00D92CE2930090
:103AC000864AD3589F4680239B001C4301321192A3
:103AD000EDE780235B001C4301321192E7E7782871
:103AE00009D0582838D06F2838D0622838D0102311
:103AF0009C430A2600E01026582833D0692803D0BA
:103B0000642801D00C229443630501D5012294431B
:103B100069282AD0642828D0A30500D59FE0E305B2
:103B200000D5B8E0630600D4CAE01C9A111D1C91B0
:103B30001168FF220A4005940A9B0493534603939D
:103B4000029600230193009243463A00594628000A
:103B5000FFF76EFA070027E01026CDE70826CBE72F
:103B60000226C9E720221443C8E7A30520D4E305B1
:103B700050D4630666D51C9A111D1C911168FF2252
:103B80000A40D317D118594005940A9B0493534611
:103B900003930296D20F0192009143463A00594690
:103BA0002800FFF745FA0700119B01331193D3E674
:103BB0001C9BDA1D07218A43110008311C911168F2
:103BC00053689C46DB170C930D930C9A0D9B1000C9
:103BD00048400E90624653400F930E980F990C9AEE
:103BE0000D9B801A99410E900F9108940A9B0793A0
:103BF000534606930496002305936346DA0F029218
:103C00000090019143463A0059462800FFF76EFAAA
:103C10000700C9E71C9A111D1C911268D317D1180F
:103C2000594005940A9B0493534603930296D20F7E
:103C30000192009143463A0059462800FFF7F8F9EF
:103C40000700B1E7230605D51C9A111D1C9100231E
:103C5000D25E96E71C9A111D1C91126891E71C9B7D
:103C6000DA1D07218A43110008311C9108940A9B30
:103C70000793534606930496002305930293136813
:103C800054680093019443463A0059462800FFF7D0
:103C90002DFA070088E71C9A111D1C9105940A9BB8
:103CA00004935346039302960023019313680093F1
:103CB00043463A0059462800FFF7BAF9070073E770
:103CC00023060DD51C9A111D1C9112681204120CAA
:103CD00031E7C04680970010C4970010109800107C
:103CE0001C9A111D1C91126825E746281AD01C9BAE
:103CF0000733072293431A0008321C9204940A9A4D
:103D00000392524602925C681B68009301944346FA
:103D10003A0059462800FFF765FC0700119B013364
:103D2000119319E620231C43E1E7672801D04728B7
:103D300002D180231B011C43452801D0472801D113
:103D400020231C431C9B0733072293431A0008328D
:103D50001C9204940A9A0392524602925C681B6871
:103D60000093019443463A0059462800FFF730FA81
:103D70000700119B01331193EEE502231A00224044
:103D8000924623421FD001241C9B1A1D1C927A1CB0
:103D90009146187843463A005946A8475346002BA7
:103DA00016D1119B013311934F46D5E5561C43465E
:103DB00059462020B847230032005C1C9D42F5D8AC
:103DC0003D001700E0E701233A002F000A9DF4E7C9
:103DD0004A46A9460A9D06E0571C434659462020FC
:103DE000C84734003A00661CA542F5D84D469146B6
:103DF000D7E71C9B1A1D1C921B6899465346002B43
:103E000000D1013B4E4601E0013613003278002A12
:103E100002D05A1E002BF7D14B46F21A1092802383
:103E2000DB0026001E401C4203D0524501D95346F8
:103E3000109302231A0022400B92234205D03A002D
:103E400037004C46A946554620E03A00109B5F4695
:103E5000B3462E0006E0551C434639002020B047EB
:103E600023002A005C1C0A999942F4D835005E466A
:103E7000BB46109437004C46A946554606E01D0047
:103E80000134561C43465946C84732002078002862
:103E900004D0002FF4D06B1E002DF0D117004D463A
:103EA0000B9B002B03D1119B0133119354E50A9F07
:103EB000109B06E0561C434659462020A847230085
:103EC00032005C1C9F42F5D81700ECE721231C430D
:103ED0001C9B1A1D1C921B680093059408230493D5
:103EE00053460393102302930023019343463A0061
:103EF00059462800FFF79CF80700119B01331193E6
:103F00002AE57C1C43463A0059462520A847119BC8
:103F10000133119327001FE57C1C43463A005946A4
:103F2000A847119B01331193270015E50A4B9A46C8
:103F300010E5AA46474502D343465A1E00E03A0020
:103F4000434659460020D047380013B0F0BCBB466A
:103F5000B246A946A046F0BD3D2E001000B585B082
:103F6000029003910121009313004A4202A90248E2
:103F7000FFF7E2FC05B000BD3F2E001000BEFDE7DC
:103F800003000A4A1268002A08D0084A1068C318B9
:103F9000074A9A4206D3054A13607047034A054907
:103FA0001160F2E701204042F7E7C0468C9E0120F5
:103FB0000000042008A5012010B50300080011002E
:103FC000002B05D1044B1A685B6800F041F910BD65
:103FD00001204042FBE7C0463894001010B50300B2
:103FE00008001400013B012B06D801230022210008
:103FF00000F0E4F8200010BD01204042FBE7012062
:1040000040427047012040427047012040427047C3
:104010000300002002229A424041704710B5FFF78A
:10402000ADFF000010B582B00C001900002A0CD0C2
:10403000084B002A0BD0019200932300020006488F
:1040400000F0A4F90120FFF799FF044BF1E7034AC0
:10405000F1E7C046B0990010C099001040A30010CD
:1040600010B5EFF30583002B00D000BEFDF7C6FEB0
:10407000034C01E008CC9847024B9C42FAD310BD98
:104080000C8D0010148D001010B5030008001100F5
:104090001B68984710BD0000F8B507000D0016001A
:1040A000437D002B02D0002400200CE003681100A7
:1040B000280098472DE03B7D10E0022115483B6821
:1040C0009847601C0134B44214DA002CF3DD2B193C
:1040D000013B1B780D3B5A425341DBB22A5D0A2A51
:1040E000F0D1002BEED1A042E7DA211A28183B6864
:1040F0009847E2E7B04203DA311A28183B6898473C
:10410000002E06DDAD19013D2B780D3B5A4253417F
:104110003B75F8BDF099001070B505000368002BE1
:1041200016D00C4B1C6805E0290004C92000FFF7DD
:10413000B3FF2469002C09D02368002BF9D0064B6B
:104140001B68002BF0D0A342F3D1EDE700232B60D6
:1041500070BDC046789E0120889E012070B5050084
:104160000C000B68802B05D021684B1C2360641861
:10417000257170BD0800FFF7CFFFF5E710B5FDF71B
:1041800037FC074A002312184B41002B03DB05487C
:1041900004F06EFD10BD01225242034BF7E7C0460A
:1041A00040420F0080150020FFFFFF7F10B502483E
:1041B00004F036FD10BDC04680150020F0B5CE4697
:1041C000474680B583B006000D0090461C00FFF7FF
:1041D000D5FF81466B1C05D0002C08D0184F194B19
:1041E0001C6807E0300004F00FF90500F4E7164FF3
:1041F000F5E72469002C17D02368002BF9D0134B66
:104200001B68002B01D0A342F3D12A00310020000B
:10421000B8474346002BECD06B46D91D0A230B70E0
:1042200001222000B847E4E74B46002B05D12800C7
:1042300003B0C0BCB946B046F0BDFFF7B7FFF6E724
:1042400099400010789E012089400010889E01202E
:10425000F0B5CE4600B582B006000F00914601933E
:1042600028E0A368002B04D03900300098470028CC
:1042700027DC2469002C06D0144D2D68002DF0D0C9
:10428000A542F6D1EDE701990A00114B5B6A99420C
:1042900009D80F49896A49450FD29A4201D00123B2
:1042A00002E0002300E00023002B08D101200021C0
:1042B000FDF7A6FB074B1C68DCE70123F4E70220AF
:1042C000404202B080BCB946F0BDC046889E012085
:1042D00000400540789E0120094A01E010331A0091
:1042E0001368002B08D08342F8D1002907D1036955
:1042F00013600023036102E0002900D010607047C2
:10430000789E012010B5064B1C6801E0984724698F
:10431000002C03D06368002BF8D1F8E710BDC0462D
:10432000789E012010B500F09FF910BD70B5050012
:1043300004F06AF804000123012201002800FFF7BD
:104340003DFFFFF7DFFF200070BD000070B5A2B099
:1043500004000E00FFF712FF050000230193330055
:10436000220001A90848FFF7F9FD040001A8FFF7A2
:10437000D3FEFFF7C7FF002D02D1200022B070BD91
:10438000FFF714FFF9E7C0465D4100100FB400B518
:1043900083B004A901C90191FFF7D8FF03B008BC9D
:1043A00004B0184770470000014B00221A70704794
:1043B00003A501204B79FF2B0CD18B79002B0BD15E
:1043C000CB79012B0AD1082A0AD98A78054B1A70B1
:1043D000092000E0002070470020FCE70020FAE7F9
:1043E0000020F8E703A501200120704710B501293E
:1043F00028D1117953791B020B43134909788B4259
:1044000001D000201FE05378012B03D0022B12D0E3
:10441000002018E09178D3781B021943DB0507D5FB
:10442000480A4A0A01231A407E331940FDF7B0FCBE
:1044300001204042F5E7642200210020FDF750FCF6
:10444000012000E0012010BD03A5012000487047B5
:10445000189A001010B51400012910D15378012BBF
:104460000FD1127963791B021343072B01D000206F
:1044700006E09F33044A210001F09CFB00E001208C
:1044800010BD0020FCE7C0463C9A001001230370D9
:1044900000487047F499001010B50B784878000276
:1044A00018438A7812041043CB781B0603439622E4
:1044B000D200934200D010BD0120002211004042E2
:1044C000FDF766FC024B1860024B19607047C0464E
:1044D000141E0020181E002010B5FDF789FA0E4AA0
:1044E000002312184B41002B12DB0C4804F0C0FBD8
:1044F00000280CD001200021404201F021FA0020C8
:1045000001F0E2FC0028F5D1044804F089FB10BD5D
:1045100001225242024BE8E740420F00D8A401209A
:10452000FFFFFF7F10B5024B1878FCF7FDFA10BDB6
:1045300004A5012070B5164B1B68002B1FD0EFF3AC
:10454000108272B619680029FCD0BFF35F8F104942
:104550004A6000230F4803700968BFF35F8F0B6048
:1045600082F31088002400250B4B1878FCF7B8FA6A
:10457000002808D1002400252000290070BDFA245D
:10458000A4000025F0E7044B1878FCF7CDFAF3E718
:1045900098A2012005A5012004A5012010B584B032
:1045A00000212A4804F054FB00281FD1284B1B6827
:1045B000002B19D0EFF3108272B619680029FCD0D5
:1045C000BFF35F8F22494A60224803780124634089
:1045D000DBB2012404700968BFF35F8F002008601C
:1045E00082F31088002B17D104B010BD01200021E8
:1045F000404201F0A5F9002001F03EFC0400134800
:1046000004F00EFB002CEFD0134B1B68002BEBD0FB
:10461000124A10689847E7E7FCF7A6FF0400FDF789
:10462000E7F9FA229200002312184B41002B09DB14
:104630000121029100210191094900912000FDF71B
:1046400001F8D1E701225242064BF1E7D8A401203C
:1046500098A2012005A50120141E0020181E00208C
:1046600035450010FFFFFF7F10B584B0D0231B0637
:104670001C68FCF779FFFDF73FF8A0422ED12E4BC6
:104680001B780021002002F0E9F82C4B1B68002B5E
:104690002AD00120FCF70EFDC0B2294C2070294918
:1046A000FCF770FA20780121FCF734FA0520FCF7BA
:1046B0004BFA041E1CD00120FCF76CF901002248C3
:1046C000FCF756FD002221490520FCF785FA01215F
:1046D0001F48FFF701FE200004B010BD1D4B1E4A0D
:1046E000C6211E48FFF79EFC1448FCF7FFFCD0E7EC
:1046F000082200211448FEF795FBFCF735FF040063
:10470000FDF776F9FA229200002312184B41002B94
:104710000DDB01210291002101911149009120003E
:10472000FCF790FFC043C40F0028D4DACFE7012282
:1047300052420C4BEDE7C046BCA40010D8A40120A7
:1047400004A501209D45001098A2012025450010D8
:10475000000D002050910010509B0010E49A0010B2
:1047600035450010FFFFFF7F10B5002001F064FB0E
:1047700010BD000070B505000C00FFF7F5FF002824
:1047800034D0002001F078FB002832D0FDF730F95A
:104790001B4A002312184B41002B19DB194804F067
:1047A00067FA002828D0FFF7DFFF002804D0002098
:1047B00001F062FB00280FD101200021404201F0EE
:1047C000BFF8032464420F4804F02AFA200070BDA9
:1047D000012252420C4BE1E722002900002001F0A7
:1047E00057FB041EEFD103246442ECE70324644228
:1047F000ECE703246442E9E703246442E6E7C046A9
:1048000040420F00D8A40120FFFFFF7FF0B5C6464D
:1048100000B580460C00FDF7EBF8314A0023121872
:104820004B41002B07DB2F4804F022FA002806D169
:1048300080BCB846F0BD012252422B4BF3E7FFF794
:1048400093FF002849D1294B0020002118605960AE
:10485000244804F0E5F9EBE701200021404201F093
:104860006FF8002001F030FBFFF77EFF0028EFD04B
:10487000002001F0ADFB002820D0A542E8DA661B3D
:10488000002001F0A5FB0200864200DC3200002A75
:10489000E2D043465919002001F076FB06000120C2
:1048A0000021404201F04CF8002001F00DFBAD1951
:1048B000FDF79EF80D4B18605960DEE7FDF798F89C
:1048C0000A4B1E685F680A4A002392197B4199428D
:1048D000BED8D2D19042D0D9BAE70025CDE7C046A4
:1048E00040420F00D8A40120FFFFFF7F08170020DF
:1048F00020A1070000487047E09B00100048704767
:104900008C9B001010B50400154B1B78002B0ED0AB
:10491000002C11D1134B144A5A80012301335B0040
:104920001BB2C022920013430E48038010BD112118
:104930000B4800F025F8EBE7052C0ED8A4000B4B34
:10494000E4580023122BE9D8E25C002AE6D00133B8
:10495000590004484252DBB2F4E70020E6E7C046C3
:10496000E4A40120509E012009040000F49B0010E3
:1049700010B5024800F034F810BDC046BCA20120BA
:1049800010B5002901D000230AE0114B114A3B3138
:104990001148FFF747FB00240DE03732C2540133C2
:1049A0004A1E9A420FD90F2B0DD85A080B4CA25C05
:1049B000DC07F0D40424224114000F222240092AEB
:1049C000EBDC3032EAE7C0180023037010BDC046AC
:1049D0000C9C0010609C0010149C0010BCA20120D4
:1049E00070B588B0040004AD0026049609220021A9
:1049F00005A8FEF717FA00960922002101A8FEF784
:104A000011FA4B232B700D226946280004F000F99F
:104A1000002304E05A1D69468A5CE2540133072BE7
:104A2000F8DD08B070BD000070B57F230340C509F4
:104A30005C0064196601254CA419A07068426841A5
:104A400060700020E0702183E276012D1DD0D80037
:104A50001F4A944660445A00521952011B498A1851
:104A600090605A005219520118498A189268002120
:104A70001160002B0FD15B005B195B01134DEB182C
:104A800000225A60134ADA6070BDD800124A944678
:104A90006044A060E5E7012D0BD05A1ED2000F49FB
:104AA0008C4662445B005B195B010849CB185A6075
:104AB000EAE75A1ED2000A498C4662445B005B1941
:104AC0005B01024DEB185A60DEE7C046909E012064
:104AD0008400105000011050800010500C00105045
:104AE0000800105010B5038B3F333F229343C27E22
:104AF000022A08D008490A68C260D3180B60074A26
:104B0000934202D810BD5B00F4E7054B054A5221E1
:104B10000548FFF787FAC04694A20120FF0F105006
:104B2000949E0010849F0010D89E0010F8B57F2539
:104B30000540C6096B009B195B010E4C1C19FFF761
:104B400073FF002D00D1F8BD6D00AD196D01094B4B
:104B50005D19298B2000FFF7C5FFEB7E9B06064AF7
:104B6000E9684A4013438022120613436A681360BF
:104B7000E9E7C046909E01200000105070B5050086
:104B80008178CA097F230B405B0051424A4113439D
:104B900001249C40FBF75AFE012806D90E4B1C66E7
:104BA0000E4B5B6E2340A342FAD1EB78002B10D161
:104BB000802252010021280004F082F8280004F02D
:104BC00067F8FBF743FE012802D9054B5C661C66BB
:104BD00070BDC0229201EDE700201150000011507D
:104BE0000030115010B504007F202040E40940003F
:104BF00000194001024BC01800F028F910BDC04652
:104C0000909E012010B5002804D101210520FBF75A
:104C100081FF10BDA421034B034AFF310348FFF776
:104C200001FAC046489F0010749F0010D89E0010E3
:104C300010B5002805D1002200218020FFF7D2FF07
:104C400010BDAE21024B034AFF310348FFF7EAF9DA
:104C5000489F0010649F0010D89E0010024B8022D5
:104C60005202DA647047C0460020115070B5041E2D
:104C700027D100F0C9F8164D0C23AB67FF22154968
:104C80000520FBF7A9FF402200211348FEF7CAF8D0
:104C9000002240210020FFF749FF00224021802010
:104CA000FFF744FF03F0ACFF01232B6480239B0537
:104CB000EB649023094AEA502000FFF7CFFF012060
:104CC00070BD7021064B074AFF310748FFF7AAF96C
:104CD00000001150C1040020909E012010D001005E
:104CE000489F0010989F0010D89E0010044B197028
:104CF000002904D0034A902380218902D1507047B3
:104D0000FFA40120002011500B785B0602D14B78E4
:104D1000052B00D070478A78014B1A60FAE7C0462D
:104D20000000115010B50C00CA789207920F012AAA
:104D30000AD0097963791B020B435B05590DA078F2
:104D4000FFF7F4FE012010BD0020FCE710B503F0D2
:104D500057FF10BD10B50400080011001A00002C08
:104D600003D1FFF73FFF012010BD034B034A044965
:104D70000448FFF757F9C046489F0010549F0010A1
:104D800012020000D89E001010B57F2213000B40C5
:104D90000A4205D1CA09012A0ED00220074A9066AC
:104DA000C9095800401840010549401880221201E5
:104DB000002103F085FF10BD0120EFE70020115016
:104DC000909E012010B57F22100008400A4200D1B9
:104DD00010BDC90940004018400104494018002393
:104DE000C3700022024903F06BFFF1E7909E01209F
:104DF000FFF7FFFF04E00A780270013101301A006A
:104E0000531E002AF7D1704710B580235B040A4A6D
:104E100013600A4A13600A4B1A6880235B049343A9
:104E2000F9D18022520100210648FDF7FBFF064B15
:104E300009225A6710BDC04600E0004000F0004063
:104E400008C00040000010500000115070B5040070
:104E50000D001600837E002B17D1A6820023E3826B
:104E60000133A3762561200003F022FF002804D03F
:104E70000C4A902380218902D150200003F010FFBA
:104E800000280AD00123237770BD81780648FFF7F8
:104E90007DFA200003F0FCFEDFE7200003F0F0FEC7
:104EA000F2E7C0460020115088A0001070B5050040
:104EB00000240CE0E31ADA00D2189200184B9B1879
:104EC000002B13D0DB68280098470134E4B2154B5F
:104ED0001B789A1CD2B2A2420FD9A342EAD9124B34
:104EE0001B68E200121992009B18E9E797229200D2
:104EF0000E490F48FFF74AFA10E00E4C54220021E9
:104F00002000FDF78FFF201D1022FF21FDF78AFFF3
:104F1000200014302022FF21FDF784FF70BDC04621
:104F20004CA20010FEA401206C17002094A10010D8
:104F3000D0A000101819002010B5FFF7B7FF00F03F
:104F40008DFE10BD70B505000C001600486900F01C
:104F50008FFE6369320001212800984770BD000070
:104F6000F0B5DE4657464E464546E0B583B081462D
:104F70000139C8B2FFF7C2FC002803D04378984635
:104F8000022B0CD0534A54495448FFF7FFF9002034
:104F900003B0F0BCBB46B246A946A046F0BDC579F9
:104FA0006A1101234E491A4014010A781026B243AF
:104FB00022430A70AD112B405B01D2B22024A243E0
:104FC00013430B70060009368278C3781B02134323
:104FD00082469A4456457BD273780B2B09D0012325
:104FE0009B467378042B09D153469F1BBFB2002404
:104FF00040E0F3789B463378F618F2E7394A3649B1
:105000003648FFF7C3F90020C2E7651BEB005D19C6
:10501000AD00354B5D193BE0344A2F492F48FFF76F
:10502000B5F90020B4E72A69314B9A423FD1C34613
:105030003DE08B22D20028492848FFF7A7F900203D
:10504000A6E727482300019D2A003100143001F013
:10505000FFFCAC466644274B1B780233DBB2A3420D
:10506000B8D8254A1C491D48FFF790F900208FE762
:105070000134E4B21F4B1D78AB1CDBB2A342EAD96A
:10508000A542C2D91D4B1D68E3001B199B00ED18FA
:10509000002DC1D03A00310048462B699847019055
:1050A0000828E5D98742E3D35B46012BBBD0002219
:1050B0009345C6D9B3789B18DBB20949C918097959
:1050C000FF29B6D10649CB181C710132D2B2EFE7E5
:1050D00001205DE70E04000020A20010D0A0001007
:1050E00018190020290400004CA20010320400000E
:1050F00055610010FEA40120670400006C17002019
:1051000070477047002070470020704770B5050059
:105110000C00CB7888780F2B54D89A002E498A58E7
:105120009746FFF7E7FB021E05D012232100280057
:1051300000F040FD47E0294A29492A48FFF726F9AF
:10514000002040E0FFF782F9021E3DD08178C3784D
:105150001B020B432100280000F02CFD33E0022B42
:105160000CD0FFF7D1FF021E30D09178D3781B020C
:105170000B432100280000F01DFD24E0FFF7BEFBDB
:10518000021EF2D19432D20015491648FFF7FEF8FC
:10519000002018E02379617909021943FFF7B2FB77
:1051A000021E15D003782100280000F003FD0AE05C
:1051B000FFF7A8FF021E0DD003782100280000F0A1
:1051C000F9FC00E0002070BD0020FCE70020FAE7B9
:1051D0000020F8E70020F6E7E8A0001079040000BE
:1051E00008A20010D0A000107047704770477047A9
:1051F000024B5878431E9841C0B2704718190020DE
:10520000024B18784007C00F7047C046181900209D
:10521000034B1878FF38431E9841C0B27047C04610
:10522000340D0020F8B505000F00FFF7F1FF061E52
:1052300056D1002F25D0542200213348FDF7F2FD2E
:10524000324B00221A703248FBF79CFF314C200091
:10525000FBF74CFF304B1C60304C20001430FBF748
:1052600091FF200001F090FF2D4B1C602D4C200081
:10527000FFF70CF92C4B18602378FD2B08D800247D
:105280001AE0F822FF3229492948FFF77FF827E082
:10529000284A26492648FFF779F821E0E31ADA0080
:1052A000D2189200244B9B18002B14D05B68002B63
:1052B00011D098470134E4B21A4B1B789A1CD2B231
:1052C000A2420FD9A342E9D9174B1B68E200121979
:1052D00092009B18E8E7194A14491548FFF756F859
:1052E0003000F8BD164B1D7039002800FFF7BEFCDA
:1052F000061E03D02800FFF785FCF1E7114A0B4991
:105300000B48FFF743F8EBE71819002000A5012030
:10531000341A0020101900206C190020180D0020EC
:1053200070190020FEA401206C170020B8A1001005
:10533000D0A00010220200004CA2001027020000A2
:10534000340D00202F02000070B50D00114B1E78A7
:105350008B7870221A420ED10F4B997800222800C8
:1053600001F000FB041E0ED029003000FFF7DAFC2C
:105370000400200070BD3D32D20008490848FFF704
:1053800005F80024F5E7074A04490548FEF7FEFF43
:10539000EFE7C046340D002018190020D8A10010F6
:1053A000D0A0001069050000F0B5D6464F4646462D
:1053B000C0B581460C0017009846089B9A46002508
:1053C00016E0184A18491948FEF7E0FF0026300099
:1053D000E0BCBA46B146A846F0BD154A124913488A
:1053E000FEF7D4FFF3E7099A13702378E418013528
:1053F000AF4214DD6378052BE3D1E1788907890F8B
:105400004145DED121004846FFF79EFF061EE4D04D
:10541000A378DA09012AE6D052461370E5E701269F
:10542000D5E7C04644050000E8A10010D0A0001058
:105430004505000010B57F200840C909400040180C
:105440003030044908180430034B196801F044FA5D
:1054500010BDC046181900206C19002010B57F201F
:105460000840C90940004018303004490818043089
:10547000034B196801F058FA10BDC04618190020F6
:105480006C190020F0B5C64600B582B001931A48E9
:1054900000787F250D40CE096F00184CE419A4193F
:1054A00030342479E4071DD46F00144CE419A41996
:1054B000303423790127BC4667463B432371019B67
:1054C000FFF748FC002813D16D000C4B5D19AE1995
:1054D0003036337901229343337133790332934366
:1054E000337105E0064A07490748FEF74FFF0020E1
:1054F00002B080BCB846F0BD340D00201819002061
:1055000096050000C8A10010D0A0001070B50A4B8D
:1055100018787F240C40CD09FFF736FC6400074B58
:105520001B195B1930331A7902210A431A711A794F
:1055300001210A431A7170BD340D00201819002092
:1055400070B50A4B18787F240C40CD09FFF73AFC60
:105550006400074B1B195B1930331A7902218A4307
:105560001A711A7901398A431A7170BD340D0020FD
:10557000181900207F220A40CB09520003498918DC
:10558000C918303108798007C00F704718190020FA
:10559000F0B5C64600B582B004000D00002000F052
:1055A00067FB2B7860221A40602A12D0402A18D05C
:1055B0002B78DB06DB0E012B00D1E1E0022B00D1C2
:1055C00026E1002B17D00026300002B080BCB84680
:1055D000F0BD63329200CF49CF48FEF7D7FE0026D8
:1055E000F2E7CE4800F044FB2A0001212000FEF73C
:1055F00031FF0600E8E7202A0AD0002A00D07EE129
:105600006B78092B00D97CE19B00C54AD3589F4693
:105610002B790F2B00D96CE1C24AD3181B79C24AEF
:10562000127893420ED2C14A1168DA00D3189B0057
:10563000C918002900D160E12A002000FFF782FC90
:105640000600C1E7911CC9B28B4200D353E19B1AFB
:10565000D900CB189B00B649C918EAE7280000F02A
:105660000DFBA9782000FFF7E3FAAE4A1378022178
:105670000B4313700126A7E7AA4B5B786A460632F4
:10568000137001232900200000F094FA01269BE703
:10569000AE78A44B5B78DBB2B3422CD0A14B5B78E5
:1056A000002B0CD19F4B5E70002E22D031002000C9
:1056B000FFF756FC061E12D0FFF796FD1BE00021F7
:1056C0002000FFF713FB2000FFF740FB954FBB784E
:1056D00098462000FFF7EAFB4346BB70E2E7D7227B
:1056E00092008C498C48FEF751FE8E4B00225A7076
:1056F0006AE7FFF77AFD2900200000F03FFA012653
:1057000062E729002000FFF701FD06005CE7A978A9
:10571000EB781B020B43012B01D0002654E7814A92
:10572000137808210B4313702900200000F026FA9B
:10573000012649E7A978EB781B020B43012B01D026
:10574000002641E7774A137808218B43137029001C
:10575000200000F013FA012636E7724B1A7851093F
:10576000920801230B4002210A4013436A46063285
:10577000138002232900200000F01CFA012623E7F1
:105780002B790F2B00D9BEE0664AD3181B79664AE5
:105790001278934225D2654A1168DA00D3189B002B
:1057A000C918002900D1B2E02A002000FFF7CAFB87
:1057B000061E00D008E72B7860221A4200D003E7CB
:1057C0006B780A3B012B00D9FEE6002000F050FA6E
:1057D0006B780A2B11D02900200000F0CFF90126A8
:1057E000F2E6911CC9B28B4200D38EE09B1AD9001D
:1057F000CB189B004E49C918D3E76B469A1D00236E
:10580000137001332900200000F0D4F90136DBE6E3
:1058100029797F230B40CE097020084219D15B0003
:105820004048C3189B191B7D3F480078834217D21C
:105830003E480668D800C3189B00F618002A1CD002
:10584000002E79D02A0031002000FFF77BFB0600F4
:10585000BAE6384A2F493048FEF798FD0026B3E6ED
:10586000861CF6B2B34206D21B1AD800C3189B009E
:105870002F4EF618E2E70026E0E76A78012A12D0F8
:10588000032A10D0002A01D000269DE62000FFF751
:1058900071FE6B469A1D108002232900200000F043
:1058A00089F9012690E6A878EB781B02034304D11E
:1058B000012A1AD02000FFF729FE002E3ED02A0030
:1058C00031002000FFF73EFB002000F0D1F9154A1F
:1058D0003523D35CDB07DE0F002B00D074E62900F4
:1058E000200000F04BF901266EE62000FFF728FEAD
:1058F000E3E7002668E6002666E6002664E6002662
:1059000062E6002660E600265EE600265CE60026EB
:105910005AE6C04634A20010D0A000105544001032
:1059200048A1001018190020FEA401206C170020C7
:105930004CA20010CD030000002645E6012643E6F8
:1059400030B585B0FFF764FC002808D105B030BD44
:1059500001AC2078FFF7F0FA2279654B9A70654B1D
:105960001C686269EFF3108172B61368002BFCD0DB
:10597000BFF35F8FA16101A9200001F0A8FB62695C
:10598000A369BFF35F8F0021116083F310880028A3
:10599000DCD001AB5B78082BE1D89B00564AD3588A
:1059A0009F4601AB1878FFF7C7FAFFF71EFCD6E752
:1059B000524B1B78002B2DD0504A1378013BDBB2A1
:1059C00013701378002BCAD1494B1A780124012196
:1059D0000A431A703422995CA1439954995C0420BB
:1059E000814399540132995CA1439954995C814354
:1059F000995401AB187802A9FFF7CAFD0028AED16F
:105A000001AC20780021FFF7BFF920788021FFF753
:105A1000BBF9A4E73A4A3B493B48FEF7B7FC95E798
:105A200001AB19797F220A40CC095000304B1B187A
:105A30001B19303318790125A843187118790335DB
:105A4000A8431871002A17D05200294B9A1812192E
:105A5000137D2E4A1278934215D22D4A1268D8002F
:105A6000C3189B00D318002B18D09C6901A8427959
:105A7000039B0078A04772E701A84279039B007856
:105A800000F00AF96BE7901CC0B2834206D29B1A61
:105A9000DA00D21892001F4B9B18E4E71E4A1949FE
:105AA0001948FEF773FC51E7114B1B78DB0700D454
:105AB00055E70F4B18780007C00FFFF797FB4EE72D
:105AC0000B4B1B78DB0700D449E7FFF790FB46E759
:105AD000029B002B00D142E7039898473FE7044B15
