:020000041000EA
:1000000000B5324B212058609868022188439860DF
:10001000D860186158612E4B002199600221596106
:100020000121F02299502B49196001219960352056
:1000300000F044F80222904214D00621196600F024
:1000400034F8196E01211966002018661A6600F04E
:100050002CF8196E196E196E052000F02FF8012189
:100060000842F9D1002199601B49196000215960AB
:100070001A491B48016001219960EB211966A021F2
:10008000196600F012F800219960164914480160C1
:100090000121996001BC002800D000471248134993
:1000A000086003C880F30888084703B5996A0420EC
:1000B0000142FBD001200142F8D103BD02B5186610
:1000C0001866FFF7F2FF186E186E02BD00000240BE
:1000D000000000180000070000035F00212200005C
:1000E000F4000018222000A00001001008ED00E03C
:1000F00000000000000000000000000074B24E7A12
:1001000000200420F7010010CB010010CD010010E9
:10011000C9010010C9010010C9010010C901001077
:10012000C9010010C9010010C9010010CF01001061
:10013000C9010010C9010010D1010010D301001045
:10014000C1010010C1010010C1010010C101001067
:10015000C1010010C1010010C1010010C101001057
:10016000C1010010C1010010C1010010C101001047
:10017000C1010010C1010010C1010010C101001037
:10018000C1010010C1010010C1010010C101001027
:10019000C1010010C1010010C1010010C101001017
:1001A000C1010010C1010010C1010010C101001007
:1001B000C1010010C1010010C1010010C1010010F7
:1001C000EFF30580103800BE00BE00BE00BE00BECA
:1001D00000BE00BEF2EB887194A60010B4A6001019
:1001E0003802001090A31AE71E481F49086006C88D
:1001F00081F3088810471D480068002801D019487D
:10020000F3E70DA40ECC002902D000F012F8F9E7B4
:100210001749184A002000E001C19142FCD116495B
:100220008847164988471649884700BEFDE701C937
:1002300001C29A42FBD37047B4A60010C000002050
:10024000C8150020BCBB00100000042000000420E2
:10025000BCBB0010001004200010042000000000AF
:10026000704700000000000008ED00E0000000D032
:10027000C81500202C650020254300106D060010D5
:10028000E1420010F8B5C04610B5064C2378002BAB
:1002900007D1054B002B02D0044800E000BF01232A
:1002A000237010BD5017002000000000CC8D0010FE
:1002B000044B10B5002B03D00349044800E000BFF5
:1002C00010BDC0460000000054170020CC8D001067
:1002D00070B5D0231B0620229A613D4C23689B01F8
:1002E000A022D205944663443A4A1A603A4B1A68EF
:1002F000930163443949596001231D0095406046CC
:100300008621C90045502468A34043509301A02191
:10031000C9058C4663441B69DB01F7D42C4B1A6872
:100320009301A021C9058C4663441B69DB01F7D406
:10033000D0231B0620225A61274B1B689B01634474
:10034000DC68C023DB051C4223D1254B1C68043428
:10035000A404A40C234B1A68EFF3108572B613683B
:10036000002BFCD0BFF35F8F1F4B1B68A3422AD02A
:100370001A4B5B7819091F2B1AD91C4804F068F92D
:10038000184B1B68BFF35F8F00221A6085F310883B
:1003900070BD2100164804F05BF90F4B1B68154A2D
:1003A00014409B01A022D20594466344DC60EFE731
:1003B0000B4E3068104BC01808490422013102F07E
:1003C00099FE3460DCE70D4A136801331360D7E708
:1003D00004650020B80C0020F0620020E8620020D4
:1003E0001C650020301E0020DC620020F08D001013
:1003F000D08D0010FFFFFF9F741E0020A05E002024
:1004000010B53C4B1A683C4B0C2A65D83B490B4055
:10041000D20213430C22934308210B4338490B406B
:1004200038490B4038490B4001210B4337490B40F9
:1004300002218B439343364A134080221203134315
:10044000102293431343103293432A4A1168314ACE
:100450008901A020C00584466144002008604A60EC
:10046000053088600B612C4B1968234B0C293AD856
:1004700022480340C9020B430C218B43082003434D
:100480001F4803401F4803401F4803400120034307
:100490001E480340022083438B431D490B408821A3
:1004A00009030B4310218B4310318B430B431A4933
:1004B00009688901A020C005844661440A600022C1
:1004C0004A6005328A600B61144B043A0421032010
:1004D00000F0FEFA30BF10BD2A21114B114AFF3146
:1004E000114803F001FF2A210D4B0E4AFF310E483F
:1004F00003F0FAFE0465002010801F00FF87FFFF55
:100500003FF8FFFFFFFFBFFFFFFFDFFFFFFF7FFFA2
:10051000FF7FE0FF08C00340F0620020D10200101E
:10052000088E0010F08F0010288E0010F0B5C6461F
:1005300000B582B00B0015008000422210436A46CD
:10054000D11D08701A0C01AC22701A0A6270A370D7
:10055000D02636062027B7610A4B9846012218009C
:1005600008F0DAFB0321491B61182A00404608F015
:10057000D3FB77610A20002101F086FA02B080BC2B
:10058000B846F0BD00C00340F0B583B00C00800059
:10059000412318436B46D91D0870144B1B886A46CB
:1005A000938000239371124B1A88684602809B78CF
:1005B0008370D0252D062026AE610E4F0122380013
:1005C00008F0AAFB230001AA6946380008F0ACFB3A
:1005D0006E610022002005E0000201AB9B5C184325
:1005E0000132D2B2A242F7D303B0F0BDEC8F0010BB
:1005F0007C8E001000C0034010B5164803F0F8FFD1
:1006000001210120FFF7C0FF0100134804F020F88A
:1006100001210220FFF7B8FF0100104804F018F88C
:1006200001210320FFF7B0FF01000D4804F010F88E
:1006300001210420FFF7A8FF01000A4804F008F890
:1006400003210720FFF7A0FF0100074804F000F88E
:1006500010BDC046808E0010A48E0010C88E001001
:10066000EC8E0010108F0010348F0010F0B5CE46C5
:10067000474680B5C1B003F0B7FF8A498A4806F003
:10068000CDFD002803D1894803F0B2FFFEE7864B79
:100690005868022210408649C024A4010C19226027
:1006A0001A6807246240CF252A4080256D01AC4698
:1006B00063441A6080239B019C46614408600121C9
:1006C000042000F083F90121062000F07FF90121C8
:1006D000200000F07BF9052000F00EFAD02424065B
:1006E000202363626361032000F006FA0823A362FB
:1006F00000220121032000F083F9642001F0D6F9E3
:10070000012006F0D1FD6B4C2060012006F0CCFDED
:10071000694B18602368002B01DB002803DA674867
:1007200003F066FFFEE7012000F096FA00F0B4FA4D
:10073000634B18600122A5210D20FFF7F7FE01226F
:1007400063211000FFF7F2FE012200210220FFF7D3
:10075000EDFE01228B210320FFF7E8FE0122F021AC
:100760000420FFF7E3FE032201210720FFF7DEFE4E
:10077000FFF742FF534806F023FE30BF2EE0524BF6
:100780001C68524B1B68E41A8023DB019C466444BE
:1007900039E04E4D29684E4BC9182200684602F0D8
:1007A000A9FC2B681B199B049B0C2B60444B1B68FA
:1007B000BFF35F8F00221A6086F31088454B1B68D9
:1007C0009B6822000121684607F072F9010084420B
:1007D00053D1404B1B68986806F0DAFE384B1A6814
:1007E000EFF3108172B61368002BFCD0BFF35F8F5C
:1007F000354B1A68354B1B689A42C0D3324B1C6884
:10080000324B1B68E41A2E4B1B68BFF35F8F00222C
:100810001A6081F31088FF2C34D980235B009C423E
:1008200000D91C0003239C43254B1A68EFF3108664
:1008300072B61368002BFCD0BFF35F8F234B1B688D
:100840001B198022D2019342A3D9204F3D68531B2C
:10085000994639681E4B984641444A46684602F01C
:1008600049FC1D4B9C4665442D19484668442A00A6
:10087000414602F03FFC3D6098E72200174803F034
:10088000E7FEA6E7164B1B68002B03D1012001F001
:100890000DF9A3E7124C2168124803F0D9FE00239A
:1008A0002360F3E78096980000C00340588F001043
:1008B00004C0034004650020F0620020748F001023
:1008C000301E0020010400101C650020DC620020A6
:1008D000741E0020780D002000C0FFFF948F0010D0
:1008E000A05E0020C08F0010F8B5CE46474680B508
:1008F000D0231B061F68BA00204BD3589846002F00
:1009000003D01F4B994600262AE01E4B9946FAE772
:10091000EB4012E024090135002C20D033000833CD
:10092000AB421CD90F23190021402342F2D0BB0057
:10093000154A9B58202DEBD40023DB07EAD407226D
:100940002A409200EB08080090403C339B000F4A7D
:1009500098504346002BDDD02800C047DAE7083620
:100960001D2E06D8F30808339B004A469C583500D4
:10097000D2E7C0BCB946B046F8BDC046341E002020
:100980003041014000410140D4620020004001405C
:1009900030B507240440A400C008A14004003C3442
:1009A000A400094D615180001818002A05D0802349
:1009B0009B019C466044016030BDC0239B019C4666
:1009C00060440160F8E7C0460040014010B5830074
:1009D000084A9A18126840245440C0222240064C0B
:1009E000A44663441A60C000044B9C4660444160C6
:1009F00010BDC04604C0014004D001400040014089
:100A000080000C4B9C46604400290ED00823002A2D
:100A10000DD004221343026853400C22134080225D
:100A2000520194466044036070470023EFE70022C0
:100A3000F0E7C04604C0014070B506000D00141E6A
:100A40000BD1D0231B061B68002B11D0094B2200B1
:100A500029003000FFF79CFF70BD0D2000F0E4F985
:100A60000028EED1044B054ABD21054803F03CFCAB
:100A7000044BECE7304101400C9000107C900010DA
:100A8000389000100041014070B50400D0231B06CF
:100A90001D68AA000C4BD358002B0AD0002803D0A5
:100AA000AD00094BEC5070BD08490D2000F012FB61
:100AB000F6E70028F7D0AD00034BE85000220349C9
:100AC0000D2000F0EBF9EEE7341E0020E9080010DD
:100AD00070B505000E0014001800FFF7D5FF2200C6
:100AE00031002800FFF7A8FF002C00D170BD0121C4
:100AF0000D2000F071F9F9E710B501238340D022F1
:100B00001206936293610521FFF760FF10BD00009C
:100B100010B58023DB0518680205120D030B1B04BA
:100B20001B0C09498A4203D1022B07D1000F10BDCB
:100B3000064B074A1321074803F0D6FB064B044A2D
:100B40001421044803F0D0FB270900009490001002
:100B500010910010B8900010FC9000100FB400B578
:100B600083B0084803F044FD049B002B07D005A97F
:100B70000191180003F04CFD034803F039FD0120FA
:100B800003F05EFB24910010548F0010EFF31080EF
:100B900072B6034B1B68002BFBD0BFF35F8F70470F
:100BA0002C0100D0BFF35F8F024B00221A6080F34C
:100BB000108870472C0100D0F8B506000C00150015
:100BC000FFF7E4FFE308F718F15C07222240012356
:100BD00093400B4205D1DBB20B433B70FFF7E2FFC2
:100BE000F8BD21002800FFF7B9FFF0B583B006007B
:100BF000019114001F00FFF7C9FF00E00134BC425F
:100C00000CD8E308F518F35C0721214001228A4043
:100C10001A42F3D1D2B21A432A7001E0012464428D
:100C2000FFF7C0FF002C02DB200003B0F0BD019BEA
:100C3000002BF9D00898FFF791FF0000054A1078C3
:100C4000431CDBB21370172B02D9130010221A7049
:100C50007047C046BD0C002000B583B00100044BB6
:100C600000931F2318220348FFF7BFFF03B000BD06
:100C700034910010441E0020002307E0054A9A1812
:100C80009200BFF35F8F0021116001331F2BF5D954
:100C90007047C0464000003410B51F2808D8074BE5
:100CA0009C4660448000BFF35F8F0023036010BD4B
:100CB000034B044A0F21044803F016FB40000034A4
:100CC00050910010C49100106C910010074B9B686C
:100CD000103080001950BFF35F8FBFF35F8F044B5C
:100CE0000021196082F310887047C04600ED00E0D3
:100CF000240100D00048704700E400E010B5FFF781
:100D0000F9FF002302E0034A04C00133072BFAD99C
:100D100010BDC0468080808010B5091A081F0B4B9B
:100D20009C4661440A4A914208D8C30706D4401041
:100D30004005400D074B184380B210BD8721064B7C
:100D4000064A4900064803F0CFFAC046FC070000F7
:100D5000FE0F000000E0FFFFD4910010509400103F
:100D60000492001010B5091A04394C08090B08D177
:100D70004905490D064A11430180064B2343438030
:100D800010BD8B21044B054A4900054803F0ACFA1D
:100D900000F0FFFF00F8FFFF489200102C940010B5
:100DA0000492001001238340034A10681840431E38
:100DB0009841C0B27047C04600E100E0002A05D06B
:100DC000044BC0225200995019607047014A802399
:100DD000D150FAE700E100E010B50A001F230340FC
:100DE000012199404009FFF7E9FF10BD012383402D
:100DF000014A13607047C04600E200E0024B9B6866
:100E000010308000C058704700ED00E010B5FFF7CB
:100E1000F5FF044BC31A00202F229A424041C0B272
:100E200010BDC046C00C002010B5FFF7E7FF00283A
:100E300006D0044B984201D0012010BD0020FCE7F1
:100E40000020FAE7C101001070B504000D00EFF3B7
:100E5000108672B60C4B1B68002BFBD0BFF35F8F64
:100E60002000FFF7CBFF094B984201D0A84205D1E3
:100E7000320029002000FFF729FF70BD044B054A0E
:100E8000ED21054803F030FA240100D0C101001023
:100E9000589200108494001004920010F0B5DE46C1
:100EA00057464E464546E0B589B08146019115004A
:100EB000EFF3108B72B6754B1B68002BFBD0BFF3A2
:100EC0005F8F734B0027DF57002F3FDB7C00E41957
:100ED000A400704824180622A2566D4B1A706E4B5F
:100EE0009A684B4610339B00D35898461B1A2F2BF9
:100EF0003AD96A4B984530D105AE694B33807B00B7
:100F00009A46D8198000634B9846404402306549A0
:100F1000FFF702FF7080644BB380FF23B371F5715C
:100F2000019B07935744BF0047440ECE0EC70123D1
:100F30001C43A0465A4641464846FFF7C7FE09B043
:100F4000F0BCBB46B246A946A046F0BDBE21574BF9
:100F5000574A4900574803F0C7F98421564B544A71
:100F6000FF31544803F0C0F9012342469A439246A8
:100F7000101A0C2101F0C4F900290FD153460026A4
:100F8000DA79AA4212D90621595600290DDB4A0006
:100F9000521892001E003F4B9B18F1E7CA21474BA5
:100FA000434A4900434803F09FF91E00002E3BD0FE
:100FB00005AB434A1A80813A5A800623F3560293BE
:100FC000002B17DA3F4805AB9A469880029A9A712F
:100FD000DD71019A0792301D2100FFF79DFEB08060
:100FE000B7717B00DB199B002A4FFF18534607CBD4
:100FF00007C79FE77800C0198000264BC01804304F
:10100000321DB388D90A1C2907D15B055915023155
:1010100049005118FFF780FED5E78E212A4B2B4A55
:101020004900244803F060F905AE1D4B33807B0076
:101030000293D8198000174A904602004244039256
:10104000901C1849FFF768FE7080039A101D5146E6
:10105000FFF762FEB0801E4B52464146521A524183
:1010600053431B0DB371F571019A0792029B9C4685
:101070006744BF0047440ECE0EC7114B5246138043
:10108000813B538001231C43A04653E7240100D039
:1010900026650020C00C002000ED00E0C10100101A
:1010A00000A1FFFFF00C002001BDFFFF9092001097
:1010B0006C94001004920010B8920010E09200109E
:1010C0000148000001BD0000649300105C94001012
:1010D000AAAA0000F0B5CE46474680B583B0060008
:1010E0000D00EFF3108872B6564B1B68002BFBD037
:1010F000BFF35F8F544B9A6834001034A300D75865
:10110000524B9F4207D0AF4200D198E00197504B1D
:10111000FB1A2F2B09D9424639003000FFF7D6FDC4
:1011200003B0C0BCB946B046F0BD3000FFF73AFE90
:10113000814600213000FFF74FFEBFF35F8FEFF3D2
:101140000581002901D08C4211D10123019C9C43CF
:101150000022A3689D4211D00622A256002A0CDB71
:1011600053009B189B002200394CE418F1E7394BDF
:10117000394A3A493A4803F0B7F822009D4257D11C
:1011800006256557002D39DB6B005B199A00304B43
:101190009B189A68A260DA79E27106229A56A271C7
:1011A0009B795BB2002B0FDA2E48A0806B005B1995
:1011B0009B00274AD3182C4A11789971157049461B
:1011C0003000FFF709FEA6E7201D6B005B199B00AE
:1011D0001F4A9B181A1D9B88D90A1C2907D15B0539
:1011E0005B15023359005118FFF796FDDDE78E219C
:1011F0001E4B1F4A49001A4803F076F8002912D105
:10120000002A0ED0FF2393711A4B9380164A13784D
:10121000A371194B0E49641A644163431B0D13708B
:10122000CDE70A4FF2E7201D1449FFF79BFDC6E703
:101230009121134B084A8900094803F055F8034FE0
:1012400069E7C046240100D000ED00E0C1010010B4
:10125000C00C00207C9300103C940010020200009F
:101260000492001001BD0000266500206493001068
:101270005C94001001BDFFFFAAAA0000FA0C002038
:10128000B093001070B5012101432C4BCB1A2F2BCA
:1012900028D8EFF30583002B2AD0EFF3108C72B619
:1012A000274A1268002AFBD0BFF35F8F254A04004B
:1012B000224D641B64416243120D54B2224A92686B
:1012C0009B00D2588A4219D00022032A30D85300FA
:1012D0009B189B001949CB189B795BB2A3421DD088
:1012E0000132F2E7194B1A4A1A491B4802F0FCFF77
:1012F0001A4B174A1A49184802F0F6FF124A926828
:101300001849D150184B1A7882711C70BFF35F8F47
:101310000B4B00221A608CF3108870BD0D00530037
:10132000991889006918FF268E71104A8A80E9E7AA
:101330000F4B074A0F49084802F0D6FFC00C0020A7
:10134000240100D0AAAA000000ED00E0B89300102C
:10135000109400107F02000004920010E09300102F
:1013600082020000C10100102665002001BDFFFFC0
:10137000EC9300109302000000B583B00100064B0F
:101380000093052300220548FFF72FFC002801DB0E
:101390001F23181A03B000BDF49300102A65002023
:1013A000024B9C4661448900016070474000003454
:1013B00010B50400FFF742FC01002000FFF7F0FF2A
:1013C000FF232371BFF35F8F10BD10B50400FFF73B
:1013D00035FC01002000FFF7E3FFFF23237100230A
:1013E0006371BFF35F8F10BD10B50D4C09E00D4B5D
:1013F0000D4A1A210D4802F077FF2000FFF7D8FFB1
:1014000008340B4B9C4209D22368002BF5D0012BEA
:10141000EDD12000FFF7D9FF0834F2E710BDC04638
:10142000B8150020A094001078950010C09400100A
:10143000C8150020034B9C46614489000160BFF33E
:101440005F8F70474000003410B504000120FFF7A3
:1014500003FC01002000FFF7EDFF10BD000408436E
:10146000704700000A4B1A68EFF3108172B61368D8
:10147000002BFCD0BFF35F8F054B1B68BFF35F8F62
:1014800000221A6081F3108840BF002000217047BD
:10149000F8640020F0B5DE4657464E464546E0B5B6
:1014A00085B0EFF3058303221A4093469200B34BB5
:1014B000D35898461B785B4507D101235A46934081
:1014C0001A000393AE4B1A6015E1AE4BAE4A92215F
:1014D000AE4802F009FF5B004B44DB004246526914
:1014E00092469A4453469E68DF68A94800F0B0FBD4
:1014F000801BB941002900DA07E1002F60DB534669
:101500001C69A44B9C4244D043460820185E5346B5
:10151000598889B2FFF7A2FF53465969A0470400D2
:101520000D0023002B434BD0002D3CDA3000390056
:10153000001BA941009001915346009801999860C1
:10154000D96000255D5F002D00DADEE043465C696E
:101550006B005B19DB00E3189A68DB68801A99411D
:10156000002900DAD1E043461D81474608370023B1
:10157000FE5E002E1FDB7500AD19ED006519009AA7
:10158000019BA868E968121A8B41002B13DB2F001E
:10159000EDE753465C6920002369984700280FD087
:1015A00065682468BDE77A4800F052FB001969417C
:1015B00000900191C0E753461E804B463B80A4E05B
:1015C000534600229B5E424613811269EFF310835B
:1015D00072B611680029FCD0BFF35F8F424602212A
:1015E000525E51460A804246494651801269BFF315
:1015F0005F8F0021116083F3108886E043461A69EB
:10160000EFF3108172B61368002BFCD0BFF35F8F2D
:1016100043469B881BB2994601235B424246938016
:101620001369BFF35F8F00221A6081F3108818E0FE
:1016300026000023F55E002D0BDB6C006419E4002E
:101640003C19009A019BA068E168121A8B41002B9B
:10165000EEDA4B463380634600229B5E9946634632
:101660001D804B46002B56DB43465F694B465B00B3
:101670004B44DB009C46BC446346DC689B6800939B
:10168000019446460836D4E700234246937141460A
:10169000083143460820185E11E001225242D31758
:1016A000A260E360434608229B5E834206D00D8021
:1016B000434608229B5E2380434618812800431C32
:1016C0002DD043465A6943001B18DB00D418D55E61
:1016D00063881BB2002BE0DB2100EFE75B4604339D
:1016E0009B002B4A9C502A4800F0B2FA241A8D41E4
:1016F000002D3ADC37D0264B039A5A634346082222
:101700009B5E9946002B00DBE5E643469B881BB2B7
:10171000002B00DB72E743469B79002BB4D1434694
:1017200008229A5E002A20DB53009B18DB00424609
:101730005269944663449C68DD68631C01D16B1C4C
:10174000D1D0134B996A601A5A4604329200D3588A
:101750005B1A9842C2D30E4B1A6A012359468B403A
:101760001342C0D1BAE7002CC5D040BF05B0F0BCD1
:10177000BB46B246A946A046F0BDC046C4620020A2
:101780003C7005408C95001080960010B8950010B4
:101790000040054095140010F8B5CE46474680B588
:1017A0000600884691461F00C160FFF747FA1B4BB1
:1017B0009C466044800030614B463370BBB27381FD
:1017C000D022120612787270012252423281B28007
:1017D0009B187380002406E0631E65002D19ED0040
:1017E000726953530134BC42F6D34B469A000C4BFA
:1017F000D65001244B469C4043461C62094948464A
:10180000FFF722FB01214846FFF7E6FA064941446B
:101810000C60C0BCB946B046F8BDC04640000034BC
:10182000C4620020951400103820000010B5064B4B
:101830001B69002B01D0044810BD044B044A6521EC
:10184000044802F051FDC046080D0020F495001038
:1018500068960010B8950010F0B5C64600B50400B3
:101860000069EFF3108C72B601680029FCD0BFF359
:101870005F8F0221665E7500AD19ED0061698846D3
:101880004544002E02DB0020295E61802169BFF300
:101890005F8F002008608CF31088002E2EDB0699E5
:1018A000296107996961AA60EB606B8801335B0469
:1018B000590C002B00D1012169803000FFF7CEFDCB
:1018C0002269EFF3108172B61368002BFCD0BFF3CE
:1018D0005F8FA3882B80A6802369BFF35F8F0022D0
:1018E0001A6081F31088E368217801328A40054943
:1018F0008C4663441A6080BCB846F0BD012040426B
:10190000F9E7C0463C20000070B582B00600140024
:101910001D0008AB1B78002B07D100F0CBF922008B
:101920002B00121A8B41002B0ADB079B0193069BAD
:10193000009322002B003000FFF78EFF02B070BD35
:101940000020FBE710B5030008145A8990422FDAF3
:1019500042001218D2005869844662441C69EFF3B1
:10196000108C72B620680028FCD0BFF35F8F5088BF
:1019700080B20904090C884212D000201A69BFF312
:101980005F8F002111608CF31088002811D0DA6875
:101990001B7801319940074B9C466244116008E076
:1019A0000549084380B2508001229A710120E5E781
:1019B000002010BD3C2000000080FFFF40787047F1
:1019C000F0B585B006000F00EFF30583002B1AD1A8
:1019D00006246442E517A4197D418D4202D803D143
:1019E000844201D90024002500F064F922002B0074
:1019F000121A8B41002B0BDC08D03000390000F0AC
:101A00006BF905B0F0BD1C48FFF7A8F8002AF4D028
:101A1000FFF70CFF002302930193184B0093220061
:101A20002B00FFF771FF002818DAE6E7002300E03B
:101A30000023002BE1D1124B1A68EFF3108172B62C
:101A40001368002BFCD0BFF35F8F0D4B1B68BFF3F7
:101A50005F8F00221A6081F3108820BF094B5B6AF8
:101A60009D42E5D80749896AA14203D29D42DDD053
:101A70000123DEE70123DCE718960010651400104F
:101A8000F86400200040054070B504000D0000F02F
:101A900011F900196941002902DBFFF791FF70BDC0
:101AA000012040420049F8E7FFFFFF7F10B5FA220E
:101AB00092000023002101F05DFAFFF7E5FF10BD61
:101AC000F0B5CE46474680B585B005000C00EFF373
:101AD0000583002B15D0474B5B6A8B4209D3454ADF
:101AE000926A82420BD28B4201D0012002E0002098
:101AF00000E0002005B0C0BCB946B046F0BD0120F2
:101B0000F8E7FFF793FEC3689946037898462E00DE
:101B10002700484600F09CF802000B00B61A9F41CF
:101B2000434604339B004A469B58181A0023BB4285
:101B30000FDC0CD020BF2F4B5B6A9C4224D82D4A6F
:101B4000926AAA4222D29C421CD00120D2E7B04223
:101B5000F0D9FFF76BFE002302930193264B00930D
:101B60002A002300FFF7D0FE061E11DD214B5B6A21
:101B70009C4221D81F4A926AAA4232D29C4219D072
:101B800001231AE00020B5E70020B3E70120B1E708
:101B9000184B5B6A9C4209D8164A926AAA4207D23D
:101BA0009C4201D00120A5E70020A3E70020A1E787
:101BB00001209FE7002300E00023002B00D120BF7D
:101BC000FFF734FE3100FFF7BDFE0A4B5B6A9C4213
:101BD0000BD8084A926AAA4209D29C4203D001203B
:101BE00088E70123E9E7002084E7002082E701205D
:101BF00080E7C0460040054065140010004870476B
:101C00000040054010B50B4B1B69002B04D00A2186
:101C10000948FFF7C5FB10BDFFF7F0FF04000321E3
:101C200000F00CF81023032221000248FFF7B4FD56
:101C3000EDE7C046080D0020F864002010B5024A08
:101C40000248FEF7B9FF10BDA0960010481E002004
:101C50000200436A906A1900536A9942FAD17047A8
:101C6000416A00E0416A9942FCD300E0416A99422E
:101C700002D1816A9142F9D37047F0B5C64600B5EA
:101C8000804614001D00FFF7E3FF06000F0022004E
:101C90002B0092197B41994202D804D1904202D97B
:101CA00001225242D3174046FFF7DAFF80BCB84604
:101CB000F0BD000010B50248FFF7CAFF10BDC046D6
:101CC0000040054010B502000B000248FFF7D5FFA9
:101CD00010BDC0460040054010B502000B00024890
:101CE000FFF7BEFF10BDC04600400540F8B5D64620
:101CF000474680B506000D0017009846440024189A
:101D0000A400294B9C4664446368089A934200D21D
:101D10006260331FDBB29A46012B2ED9802212015A
:101D2000C0239B01E3181A60B300204A9958002988
:101D300007D0506900F0E4FA431C5800C01803387B
:101D4000FDD27F0122685740E022174080235B01CB
:101D5000E3181F605246012A1AD980239B01E31819
:101D6000802212011A60089B6360B6000F4B424646
:101D7000F250C0BCBA46B046F8BD012DCED1032208
:101D8000C0239B01E3181A60A368DB07FCD5D8E7E2
:101D90002168694003220A401A60A3680122AA4010
:101DA0001A42FAD0D9E7C046008000404C1E0020FD
:101DB000F0B583B005000E0017001800089900F078
:101DC0009FFA0300089A140200943A003100280098
:101DD000FFF78CFF03B0F0BD10B582B08024640023
:101DE0000094FFF783FF02B010BD00008000014B9C
:101DF000C05870474C1E0020F0B5C64600B5040020
:101E00000E0017001D00364800F07AFA8046354B68
:101E1000FA18354B9A4238D80100380000F070FAB1
:101E20000200103A98235B009A4234D86B1E062BAE
:101E300037D8069B013B062B33D83F09474536D39D
:101E40002D04069B1A0315432368002B35DB274B13
:101E50009C4243D00C2301229A40254B1A60254B0B
:101E60001A60254B1B6811009943FAD12660A060C7
:101E7000224BE218212313602368002BFCDAE56073
:101E80000823136080BCB846F0BD1D4B1D4A1121CC
:101E90001D4802F029FA1D4B1A4A19211A4802F06E
:101EA00023FA1B4B174A1C21174802F01DFA194B45
:101EB000144A2321144802F017FA22683F231340E2
:101EC000B342C4D1A3681B051B0D8342BFD1E36895
:101ED000EE22D2021340AB42B9D1D3E70D23BAE7C9
:101EE000001BB70080E84BD380F8A93200C0024045
:101EF00000E0004000F0004008C000400430000056
:101F0000C4960010DC97001014970010589700102A
:101F100074970010C0970010024B1A68024B5A6069
:101F20007047C046B46200200080054010B5020032
:101F3000164B8020C0051860154B16481860002904
:101F40000AD0154BE021C9041960002A09D1124BAF
:101F5000802212061A6010BD0C4BE021C9041960E2
:101F6000F3E753019B1A9800801800010B4B18608F
:101F700080235B04984202D3084B094A1A60FFF79A
:101F8000CBFF054B8022D2051A60E4E700B0054084
:101F900008200140FCFF010000A00540B4620020C1
:101FA000FFFFFF0010B5030010000C4A8024E40579
:101FB0001460002B0DD001221343094A094CD4614F
:101FC000094C5C401462516293620021FFF7AEFF3E
:101FD00010BD034B0022DA61F7E7C04600B00540B0
:101FE00000800540D3C007B02D3FF84F80239B00F1
:101FF0000B43014AD36270470080054010B50100D1
:1020000018231B8814221088984710BD10B50100B2
:1020100018231B8816221088984710BDF0B5C646B5
:1020200000B507000E0000250123984600E00135A9
:10203000B5420AD2AC003C192068FFF7DFFF2060F0
:102040000028F4D100239846F1E7404680BCB8460A
:10205000F0BD000070B504000D000648FFF7CEFF8C
:102060000300002C03DB0120A0402900984700203A
:10207000FBE7C04655420000074BAA2212011A6036
:102080008D225200DA60054B054A1A60024B5B68EC
:10209000002BFBDA7047C04600400240006002405F
:1020A00000B0FA0010B5040001E008CC9847024BDC
:1020B0009C42FAD310BDC046C48D0010704700008A
:1020C00010B50248FFF7EEFF10BDC046888D001026
:1020D00010B50248FFF7E6FF10BDC046BC8D0010EA
:1020E000054B064A1A60064B064A1A60064B1A68E8
:1020F000044B9343FAD1704700E00040BFCDFBFE94
:1021000000F00040FE7F3C0008C00040044BDB6C48
:10211000002B03D1034B8022D2021A607047C046C5
:10212000000011504C201150044B054A1A60054B19
:102130001B68DB43DB01FAD17047C04600F000406A
:10214000FFFFFF0108C00040034B40229A675A6717
:102150001A67DA667047C04600F0014010B5FEF716
:102160008BFD10BD10B50C4A0C4BD21A9210140006
:10217000302A00D9302292000849094800F0BAFFFD
:1021800004E0A2000749064BD15001342F2CF8D9A6
:10219000034A054B9A6010BDC001001000010010F9
:1021A00000000020C101001000ED00E070B5042027
:1021B000FFF71CFE064900F0A3F805000024002CE0
:1021C00000DD70BDE0B22900FFF710FF0134F6E733
:1021D00040420F0030B583B0274B00229A67FFF7CB
:1021E0004BFF264B01221A60234B5B6C012BFBD16A
:1021F000234B03221A60204B9B6B012BFBD1013335
:10220000009304331F4A01211F48FFF7F5FD052302
:1022100000931E4A01211E48FFF7EEFD1D4B0022D0
:1022200002210420FFF7D8FD1B4D2B0000220121C5
:102230000520FFF7D1FD194C2300002200210720C3
:10224000FFF7CAFD2300002200210820FFF7C4FD8C
:102250008023DB0000932300002200210920FFF7E8
:10226000A7FD2B00002200210620FFF7B5FDFFF798
:102270009DFF03B030BDC046008000403CB0004030
:1022800030B00040002F685900800240008C864723
:1022900000C00240001BB70040597307006CDC020D
:1022A00001480421014B1847200D00201D2000107B
:1022B000124A936F9B0815D29066D166002905D00B
:1022C000FFE7FFE7FFE7516F106F704704B580210C
:1022D0000906C2175140002800D0C84306F004FD8B
:1022E000002104BDF0B5146E556E576F166FFFF7E1
:1022F000E3FF1466556657671667F0BD000000D00F
:10230000114A936F9B0813D210665166002905D0BD
:10231000FFE7FFE7FFE7516F106F704704B5002834
:1023200001D00020C04306F0DFFC002104BDC04600
:10233000F0B5146E556E576F166FFFF7E5FF146614
:10234000556657671667F0BD000000D094464A4AAC
:10235000926F9208624601D228E0C046F0B5464E20
:10236000346E756E776F366F00F020F89446424AEF
:1023700014665566576716676246F0BD94463E4A36
:10238000926F9208624601D254E0C046F0B53A4ED0
:10239000346E756E776F366F00F04CF89446364A9F
:1023A00014665566576716676246F0BD002B24DB3E
:1023B00011D000293EDA00B5C943404200D10131B5
:1023C00000F038F8C943404200D10131DB435242AA
:1023D00000D1013300BD002AEBD1002801D1002932
:1023E00005D00020C90FC90701D1C043410800B57D
:1023F00006F06AFC0022002300BD00B500290ADBBC
:10240000DB43524200D1013300F014F8C94340428B
:1024100000D1013100BDC943404200D10131DB434D
:10242000524200D1013300F005F8DB43524200D1A3
:10243000013300BD002923D1002B18D1002A0CD074
:10244000BC460D4F38667A6600210023FFE7FFE7A0
:10245000FFE77A6F386F67467047002801D007485A
:10246000010000B506F030FC0022002300BD020090
:102470000B00002000217047000000D0FFFFFFFF8D
:10248000002B00D0BFE0130C28D1002AE7D080B485
:10249000114F39667A66FFE7FFE730B4040C7B6FB3
:1024A000396F1B0423433B667A66FFE7FFE7FFE7CC
:1024B000C04684B27B6F3D6F1B0423433B667A6644
:1024C000FFE7FFE7C04600232C042D0C7A6F386F1E
:1024D00000196941B0BC7047000000D0F0B59446C7
:1024E0000025140E01D112020835140F01D112017A
:1024F0000435940F01D192000235D40F01D152005E
:102500000135D40B0134254F7C66254C3C660E0CFE
:1025100093B2FFE7FFE7FFE73C6F6643360C7703B4
:10252000BE467343DF0B5B04C01AB941130C7343FF
:10253000DB18C91ACE086643360CB64493B273430F
:102540001F0F1B01C01AB941130C73431F0B1B054E
:10255000C01AB941860D8F023E436643360C092DE1
:1025600024DB520A7243801A7703460A6643360C0C
:1025700016235B1BDE40DF40BF1964466643821BA7
:102580007046043506330100D940A840C01900D375
:102590000131A24206D20023F0BD0000000000D0AD
:1025A000FFFFFFFF121B0130F3D3F1E709277F1B69
:1025B000FE406446A2B27243801A00D20139220C56
:1025C0007243130C1204821A99410B0070460435B1
:1025D00013370100F940A840801900D30131002BC6
:1025E00002D1A2420AD2F0BD013000D30131121B48
:1025F000FAD2013BF8D1A24200D2F0BD013000D3A3
:102600000131121BF7E7F0B51C0C00D080E00CB4D0
:1026100000251C0A04D11B02160E33431202083592
:102620001C0B04D11B01160F3343120104359C0B04
:1026300004D19B00960F334392000235DC0B02D18C
:1026400092185B4101351C00971864410134464FD4
:102650007C66464C3C660E0CFFE7FFE7FFE7C04692
:102660003C6F6643360C7703BE4697B27743C01B78
:1026700000D20139C01B00D201399FB27743C91B78
:10268000C91B170C77437E04FF0B801BB941CE0892
:102690006643360C0C2D33DBB644120B1F053A4350
:1026A0001B0B97B27743C01B00D201399FB277430F
:1026B000C91B170C77433E043F0C801BB941860DA4
:1026C0008F023E43664329277F1BFE400C3D774621
:1026D000AF40BF1930BCA2B2ABB272437343801A91
:1026E0009941220C7243130C1204801A9941020082
:1026F0000B000137001BA941F9D2781E0021F0BD63
:102700000C277F1BFE4077467F0BAF40FF19E0E7A9
:1027100000245D1C07D0144F7D663966FFE7FFE794
:10272000FFE7FFE73C6F95B29EB265436643401BEF
:10273000B141150C1E0C6543664336042F0C3E4315
:102740002D04401BB141994204D202000B0020002D
:102750000021F0BD01D19042F7D3801A9941013494
:102760009942F2D3F6E70000000000D0FFFFFFFF20
:1027700048404140484018B41B4B5B68FC460193FD
:1027800008BD04DF472A001018B4174B1B68FC462D
:10279000019308BD00DF512A00109446134A926F3E
:1027A000920809D2624618B40F4BDB68FC460193CD
:1027B00008BD0CDF092D00100C4AF0B5146E556EE3
:1027C000576F166F6246FFF7EEFF084A14665566AC
:1027D00057671667F0BD18B4034B9B68FC4601931E
:1027E00008BD08DFAD2B0010F4620020000000D00F
:1027F000FFB550404240504059404B40594000E0E6
:10280000FFB5154F4C00640D03D0BC4204D10C033E
:1028100014D80020090D09055C00640D03D0BC42EA
:1028200004D11C030AD800221B0D1B0501264B40B6
:1028300009D44B4003D58B4200D18242FFBD99425F
:10284000FCD19042FFBD0B43DB1803431343F5D08B
:10285000C9434918FFBD0000FF07000000B5FFF79E
:10286000CFFF804100BDC04600B5FFF7C9FF01D9C9
:10287000002000BD012000BD00B5FFF7B9FF01D960
:10288000002000BD012000BD00B5FFF7B1FF804171
:1028900000BD012040054A00121804D85A00121841
:1028A00001D8002070470120704700000021002857
:1028B00005D17047C1174840401AFAD0C90713B56F
:1028C000064B1B6898470CBC441CA2401005120B19
:1028D0000349091B09051943114310BDF463002086
:1028E0001F04000010B54C00620D8023D218DB00DD
:1028F000D21A5B057E2A10DD9E3A13DACC17090343
:10290000490819435242D140640001341532202A4B
:1029100005DAD0400843604310BD002010BD0846D2
:10292000604310BDC80FC018013810BD18B4044B67
:102930005B6AFC46019308BD24DFB92E001000003D
:10294000F462002070B513231C78012C14D0012CE4
:1029500014DC022C02DC1F4A1F4B9A641F48FFF74D
:102960004DFB1F4B186070BD99001A481A4A8850D9
:1029700001331F2BF8D9EAE70023FAE71948FFF7DC
:1029800045FB05001848FFF741FB023803789B0020
:102990007F2B19DD802229000F4800F0ABFB022CB1
:1029A000D7D1124B1A88B5231B029A4209D1104B7A
:1029B0001A88104B9A4204D10F4B1A880F4B9A4237
:1029C000C7D00020FEF7CAF80D4B0E4A33210E483F
:1029D00001F08AFC0D2A0010F46200204C33000044
:1029E000F4630020534400005346000054380000B4
:1029F000D8380000494600009C38000059460000C5
:102A0000E8970010809800102C98001007B56046D9
:102A1000002800D100BE01880A0A0230DF2AFAD15C
:102A2000C9B2820804D3028840880004104300E041
:102A30000068024A5050039007BD0000F462002075
:102A40000FB403BC0CBCF0B50124E407634000E004
:102A5000F0B50C0DCF0F661E3605891B640503D338
:102A6000C943404200D30131640D03D0661CF60A0D
:102A700007D0E41B00207F00791C89078912803C65
:102A800024031D0DDF0F6E1E36059B1B6D0503D342
:102A9000DB43524200D301336D0D03D06E1CF60AA6
:102AA00007D0ED1B00227F007B1C9B079B12803D03
:102AB0002D032F1B661B58D4A446202E46DA203740
:102AC0001400BC401D00BD40F24033412A43801831
:102AD0005941CB0F05D0C943C04300226442504145
:102AE000514162464D0D28D10D0D07D100281FD050
:102AF000241940414941013A0D0DF9D0640006D333
:102B0000013000D30131002C01D140084000013ACE
:102B10000BD4941CE40A04D112051144DB071944B8
:102B2000F0BDD907204B194300E0D9070020F0BDC4
:102B30000029DDD1002CDBD1F0BD0132C6074008F1
:102B4000CD0728434908002EE1D0D9E73C2E29DAE9
:102B5000203E40371400BC4000D00124F240144312
:102B60001A00BB401C43D317ACE7AC46202F08DA51
:102B700020360400B4400D00B540F84039412843E8
:102B8000A5E73C2F0CDA203F40360400B44000D0CB
:102B90000124F84004430800B1400C43C117EAE7A0
:102BA00010001900002494E70000F07FF0B50C0D30
:102BB000661E3605891BE60A6405640D02D0651C95
:102BC000ED0A04D0002001210905803C2403A4461D
:102BD0001C0D671E3F05DB1BE70A6405640D02D070
:102BE000651CED0A04D0002201231B05803C240350
:102BF0007740644497B484B296B27443070C7E4322
:102C0000150C6F4380B26843361802D301200004CC
:102C10003F183004350C00197D41844688B29AB2C1
:102C200050430C0C62431F0C7C438EB27E439219BE
:102C300002D301263604A4191604170C361867416E
:102C400001BC81B29AB25143040C62431B0C5C4339
:102C500080B25843121802D3012000042418100433
:102C6000130C401863412D185E410020474106BCFB
:102C700088B293B258430C0C6343120C544389B28C
:102C800051435B1802D301210904641819041A0C7A
:102C9000091862416D1856410020474118BCF902DD
:102CA000720D1143F0026A0D1043ED020A0D03D1BB
:102CB0006D1940414941013B124E9B1B7600B342C6
:102CC0000ED26D0007D301300026714166463543B0
:102CD00001D1400840001B05C918E4072144F0BD9C
:102CE0000BDA013306D1013004D101314F0D01D08F
:102CF0004908F2E7E1070020F0BD01363105002068
:102D0000EBE70000FF030000F0B51C0D671E3F0558
:102D1000DB1BE70A6405640D02D0661CF60A04D0CA
:102D2000002201231B05803C2403D0252D0600260C
:102D3000F6432E661E096E66CE0FF619B44649009C
:102D40004F0D02D07E1CF60A03D000200021403F28
:102D50003F033E1BB600B444013F7F05C91B490831
:102D60002E6F013676089C02950D25437543ED13B1
:102D70007543AD1301356D10F603761B0CB4CC0210
:102D8000450D2C43A2B2B3B25A43270C7B43350CFA
:102D90006F43A4B26C431B1902D3012424043F19CE
:102DA0001C041D0CA4187D4124196D41009A91B298
:102DB000ACB26143170C7C432B0C5F4392B25A4375
:102DC000A41802D301221204BF182204230C5218A3
:102DD0007B41019C6C431B19520ED9010A434401EB
:102DE000A01A81B2B2B2514303145A43360C734352
:102DF00087B27743D617D21900277E4136049B1934
:102E00001704160C7F185E417316ED18F3010026A7
:102E100080337541A90F06D16400690AE8055B0A91
:102E2000184309D22FE00422944480337541A90A43
:102E3000A8059B0A184326D3404149412404009A1F
:102E4000019B0D005543641B4343E41A95B286B2BF
:102E50007543170C7E43030C5F4392B25A43B61876
:102E600002D301221204BF183204330C52197B41E1
:102E700052429C41002C02D40022013051414008B2
:102E8000CA071043490802B06246D7079210084BA0
:102E9000D218084B9A4203D212058918C919F0BDFD
:102EA0000020002A01DC3900F0BD01331905F5E7E7
:102EB000FD030000FE070000002200B5203200F0F4
:102EC00004F8080000BD000000220B150AD410B55C
:102ED000944600F031F81414013400DA0021CB17C5
:102EE000144C20470020002170476244343A0CD42F
:102EF0000C2A07DA04009140904052422032D4401C
:102F0000214310BDD843D94310BD203207D40C460D
:102F10009440524220321141D040204310BD08005D
:102F2000C917203203D452422032104110BD18007C
:102F3000190010BDEB2E00100A0DCC0F531E1B05FF
:102F4000C91A520503D3C943404200D30131520D7F
:102F500003D0531CDB0A07D0121B00206400611C45
:102F600089078912803A1203014BD21A7047000078
:102F7000FF03000051434343C9188C46110C83B230
:102F80004B4310B4040C614392B280B2504362438D
:102F90001C041B0C001910BC59411304120CC0185E
:102FA000514161447047000070B513231D782A48D1
:102FB000FFF72CF80400012D11D0012D09DDA31E0F
:102FC0001B789B007F2B40DD80222100234800F0EE
:102FD00091F82348FFF712F8224B186070BD542275
:102FE00001001E4800F086F81F4B1A881F4B9A42BA
:102FF0001CD1A7239B011A881D4B9A4216D11D4B49
:103000001A881D4B9A4211D11C4B1A8894239B019C
:103010009A420BD11A4B1A881A4B9A4206D11A4B74
:103020001A681A4B9A4201D1152307E01848FDF798
:1030300095FD99001748094A885001331F2BF8D98C
:10304000144A064B1A62DA61B7E7134B134A42215E
:10305000134801F049F9C04653460000F8630020C8
:103060004C330000F4630020EE290000C40F000080
:10307000C20D0000962B0000C0B50000182B000008
:10308000CC2A000010B50000FC2C000051ED876434
:10309000E88E0010A5300010949800101C990010C4
:1030A000C898001007B56046002800D100BE01880E
:1030B0000A0A0230DF2AFAD1C9B2820804D3028890
:1030C00040880004104300E00068024A505003901A
:1030D00007BD0000F863002001480421014B184798
:1030E000300D00201D200010014B1B681847000008
:1030F000300D0020014B5B6818470000300D0020A8
:10310000704710B5002802D00B684968984710BD79
:103110000100002007E083001B185B00501C0860C2
:103120001078C01830380A681378303BDBB2092BAE
:10313000F1D97047F0B5DE4657464E464546E0B5F4
:1031400083B093461F000C9B9A460D9C0E9B99469C
:103150000F9B9B0703D0B8460F00060022E00192A8
:10316000A34688464E46B9460700B44207D2551CCE
:103170004B4641462020B84701342A00F5E73D0080
:103180004F465C46019B9B46B1464646B8463700D3
:103190002E0007E0013C551C5346185D434639009C
:1031A000B0472A00002CF5D135003E0047460F9B62
:1031B0009B0707D4100003B0F0BCBB46B246A9463B
:1031C000A046F0BDB0464E46B9462F005D46531BA3
:1031D000B342EFD2541C4B4641462020B847220050
:1031E000F5E7F0B5CE46474680B585B0944698469B
:1031F0000C9D0D9C0EAB1B789946109A119B129E4C
:10320000B7071CD4002B0CD0F7070AD54F46002F68
:1032100002D10C37374204D0013B02E030272F5552
:103220000134944201D21F2CF8D9F70707D59C42EC
:1032300005D21F2C03D830272F550134F5E7F706A8
:1032400015D5770505D4002C03D0944224D09C4298
:1032500022D00F9A102A2BD00F9A102A30D00F9A12
:10326000022A35D01F2C02D830222A5501341F2CB7
:1032700005D84A46002A31D02D222A55013403961A
:1032800002930194009543466246FFF753FF05B051
:10329000C0BCB946B046F0BD621E012C06D00F9FDF
:1032A000102F01D01400D4E7023CD2E71400D0E77D
:1032B000B206D1D41F2CCFD878222A550134D1E7B9
:1032C000B206CCD51F2CCAD858222A550134C9E7DA
:1032D0001F2CC7D860322A550134C3E7720703D5C3
:1032E0002B222A550134CAE73207C8D520222A5595
:1032F0000134C4E7F0B5DE4657464E464546E0B5D4
:1033000093B081468A46089209931CAB10CB1B7878
:103310009B461E9D219B9846002C03D110234246BC
:103320009A4390468023DB0046461E4042461A429E
:1033300012D0002C22D000260EE03033D9B2771CF8
:103340000AAB995529002000FEF7DAFFAC4216D3EC
:103350001F2F14D83E00040029002000FEF7D0FFE4
:10336000CBB2092BE9D94246920605D54121C918AD
:10337000C9B20A39C9B2E2E76121F8E7270043463A
:103380000693209B05931F9B049303955B46029332
:1033900001970AAB0093099B089A51464846FFF7EC
:1033A00020FF13B0F0BCBB46B246A946A046F0BD14
:1033B000F0B5DE4657464E464546E0B595B0089016
:1033C00009910A920B931E9E1F9C20AB1B789B4673
:1033D000229B9946239D269B9A463300234303D183
:1033E000103352469A4392468023DB0057461F40D3
:1033F00052461A4219D0330023432DD0002714E03F
:103400003033DAB27B1C98460CABDA554A462B00B7
:1034100030002100FEF7B2FFA5421FD819D0434665
:103420001F2B1BD8474606000C004A462B003000D5
:103430002100FEF7A3FFD3B2092BE1D95246920631
:1034400005D54122D218D2B20A3AD2B2DAE76122C5
:10345000F8E7B145E3D901E00023984653460693C7
:10346000259B0593249B04934B4603935B46029351
:10347000434601930CAB00930B9B0A9A0999089859
:10348000FFF7AFFE15B0F0BCBB46B246A946A0465A
:10349000F0BD0000F0B5DE4657464E464546E0B565
:1034A00091B083468A460C9298461A9C08941B9DBC
:1034B000099522002B0020002900FFF7EAF90028D7
:1034C00000D0E5E001225242D74B20002900FFF74F
:1034D000DBF9002800D0DBE001225242D34B200070
:1034E0002900FFF7BBF9002800D0D1E0002200231B
:1034F000089E3000099D2900FFF7B0F9002800D090
:10350000DDE008980999069007918023DB001E9A58
:103510001A400D921E9A1A4201D106231C93069856
:10352000079904000D000A000600024300D1D1E013
:10353000080D4005400DBE4CA44660440A03120B22
:10354000BC4B13431F00FFF7B5F9BB4ABB4BFFF75A
:1035500042F9BB4ABB4BFFF717F904000D000022EC
:10356000B94B30003900FFF706F9B84AB84BFFF7FE
:1035700032F902000B0020002900FFF705F9FFF7E0
:10358000B1F98146FFF796F904000D00B14AB24B3C
:10359000FFF721F90022B14BFFF7F6F8FFF7A2F988
:1035A0000600AF4AAF4B20002900FFF714F90400D2
:1035B0000D003000FFF77EF9AB4AAC4BFFF70BF97B
:1035C00002000B0020002900FFF7D5F804000D00D1
:1035D00002000B00FFF7FFF80A900B91A44BF318C1
:1035E00000261F0522002B0020002900FFF7CCF841
:1035F0000E900F9122002B0000208021C905FFF7BB
:10360000BAF804000D0000229A4B0A980B99FFF7B4
:10361000C4F80022984BFFF7B7F802000B000A9895
:103620000B99FFF7BAF80022944BFFF7ADF80200B0
:103630000B000A980B99FFF7B0F802000B0020006E
:103640002900FFF7A1F802000B000E980F99FFF771
:10365000A4F80022774BFFF797F832003B00FFF702
:10366000BAF806000F0004000D00069A079BFFF74A
:103670000BF9002830D001235B429C46E144002234
:103680007D4B30003900FFF788F804000D0023E07F
:103690001E9B04931D9B03931C9B0293089A099BFA
:1036A0000092019343460C9A5146584600F0FCF8AC
:1036B00011B0F0BCBB46B246A946A046F0BD0023FF
:1036C000002406930794069680231B069C466544B7
:1036D00007951AE7002399464B466333C62B1ED83D
:1036E00004261E9B1B0526D52B0023430FD0644ABE
:1036F000644B06980799FFF7BFF8002879D000229D
:10370000614B06980799FFF7A9F8002871D01C9B18
:103710004B4506DD4A46981A431E1C9303E00526D6
:10372000DFE700231C938023DB001E9A1A431E92BE
:103730000026002399461D9B9E4264D29F1B0223B4
:103740001E9A1A400A921E9A134202D0002E00D0EE
:1037500000274B46002B07D022002B000698079924
:10376000FFF71BF80690079100220023089809999B
:10377000FFF774F8002848D1444B1E9A1340049375
:1037800003971C9B0293069B079C0093019443465E
:103790000C9A5146584600F087F8002E00D187E772
:1037A0001E9B9B063DD54525441C434602005146C1
:1037B0002800D8474B46DA179B185340052205923C
:1037C000013E0496002203920A3202924A46D00F2A
:1037D000019000934346220051465846FFF78AFD68
:1037E0000A9B002B00D163E702005F460C9E1D9DE3
:1037F00054E01C9B002B9ED00D9B002B9BD01C9B50
:10380000013B1C9397E7002799E7069C079D220040
:10381000290080200006844661440B00069207932D
:10382000AAE76525C0E7C046FFFFEF7FFFFFEFFF78
:1038300001FCFFFF0000F03FFB799F501344D33F92
:10384000B3C8608B288AC63F0000F83F61436F63AE
:10385000A787D23F71A379094F930A400000E03F48
:103860001655B5BBB16B0240EF39FAFE422EE63F6A
:10387000FF03000000002C4000002440000018401E
:103880002D431CEBE2361A3F80842E41FFF7FFFFE9
:10389000541C434651462020B8472200931BAB429C
:1038A000F6D3100004E7C046F0B5DE4657464E4654
:1038B0004546E0B595B00690079193469946209FFE
:1038C0001E9A1F9B10001900FEF7E3FF002831D15C
:1038D00001225242BF4B1E981F99FEF7BFFF0028DE
:1038E00037D101225242BC4B1E981F99FEF7CCFFE4
:1038F00000283DD10022B94B1E981F99FEF7C4FF46
:10390000002850D10022B64B1E981F99FEF7A6FF43
:10391000002848D1002200231E981F99FEF79EFF21
:10392000002850D100239846229B5B0500D4B6E0C6
:10393000002458E0229B0393219B029303230193CD
:10394000A84B00934B465A4607990698FFF7F2FB9F
:103950000EE1229B0393219B029304230193A24B2C
:1039600000934B465A4607990698FFF7E3FBFFE0A2
:103970000423229A1A4022990B4210D09B4B002A12
:103980000FD0042222990391219902910192009370
:103990004B465A4607990698FFF7CCFBE8E0944B54
:1039A000EDE70322EEE7229B0493219B039302970A
:1039B0001E9B1F9C009301944B465A4607990698FC
:1039C000FFF768FDD4E01E9A1F9B00200021FEF740
:1039D000D2FE1E901F9101239846A5E70CAB302222
:1039E0001A55013F01341F2C01D8092FF6D81E9813
:1039F0001F99FEF777FF0500FEF75CFF02000B0042
:103A00001E981F99FEF7B7FEFA007A4B9B181A68AA
:103A10005B680A920B93FEF7DEFE08900991FEF7B1
:103A200085FF0600FEF742FF02000B000898099987
:103A3000FEF7A1FE0890099100226F4BFEF724FFCC
:103A400000282ED001363000FEF730FF02000B00B8
:103A50000A980B99FEF708FF002801D001350026CF
:103A6000002F2CD12800FEF725FF02000B001E9826
:103A70001F99FEF780FE06000F0000225E4BFEF746
:103A8000EDFE002846D100225B4B30003900FEF7E6
:103A9000FBFE00283ED1EB073CD501353AE0062776
:103AA00046E70022544B08980999FEF7D7FE0028F4
:103AB000D6D1002E01D0F307D2D50136D0E7AA46E1
:103AC0001F2C11D8013F0A213000FEF719FC651C9C
:103AD00030310CAB19550A213000FEF711FC092ECC
:103AE0000ED906002C00EBE755461F2C0CD87B1E88
:103AF000002F09D00CAA302111551F000134F4E722
:103B00002B0055461C00F0E71F2C03D80CAB2E22CF
:103B10001A5501341F2C10D80A212800FEF7C8FBC3
:103B2000661C30310CAB19550A212800FEF7C0FB8A
:103B3000051E01D03400EDE734000323229A134020
:103B4000012B1CD01F2C06D84346002B32D00CABC7
:103B50002D221A550134229B0393219B0293019439
:103B60000CAB00934B465A4607990698FFF7E2FACA
:103B700015B0F0BCBB46B246A946A046F0BD219B9D
:103B8000002B13D04346002B02D10C3313420FD02D
:103B9000219B013B2193190003E00CAB30221A5505
:103BA00001348C42CED21F2CF7D9CBE72199F8E70C
:103BB0002199F6E7229B5B0704D50CAB2B221A5503
:103BC0000134C8E7229B1B07C5D50CAB20221A5530
:103BD0000134C0E7FFFFEFFFFFFFEF7F65CDCD4171
:103BE00065CDCDC1D4990010D8990010CC990010A2
:103BF000C8990010C09B00100000E03FF0B5DE4601
:103C000057464E464546E0B593B082468B469046B1
:103C10001193002900D1EBE200275546119B18783B
:103C2000002800D1E7E2252809D07C1C43463A0051
:103C30005946A847119B013311932700EEE7013342
:103C400011930024119A11780B00203BD8B2102850
:103C500003D88300D048C3589F460B00303BDBB2EB
:103C6000092B2CD92A292FD000230A93119B1A78CB
:103C70002E2A39D000239A46119A1378683BD9B27C
:103C8000122976D88B00C549CB589F4601231C4387
:103C900001321192D6E702231C4301321192D1E77F
:103CA00004231C4301321192CCE708231C43013248
:103CB0001192C7E710231C4301321192C2E711A8E9
:103CC000FFF726FA0A90D1E71C9B1A1D1C92186870
:103CD000002804DB0A90119B01331193C6E70223ED
:103CE0001C4343420A93F6E78022D20014435A1C35
:103CF00011925A781300303BDBB2092B04D92A2ADF
:103D000007D000239A46B7E711A8FFF701FA8246C9
:103D1000B2E71C9B1A1D1C921868002804DB82461F
:103D2000119B01331193A7E70020F8E780235B0084
:103D30002343511C119152786C2A01D01C0018E0C9
:103D4000C0239B001C430131119112E080232343C7
:103D5000511C11915278682A01D01C0009E0C0233F
:103D60001C430131119104E080235B001C430132AC
:103D70001192119B18780300253BDAB2532A00D91F
:103D80002CE29300864AD3589F4680239B001C4315
:103D900001321192EDE780235B001C430132119246
:103DA000E7E7782809D0582838D06F2838D062281B
:103DB00038D010239C430A2600E01026582833D020
:103DC000692803D0642801D00C229443630501D5EF
:103DD0000122944369282AD0642828D0A30500D55D
:103DE0009FE0E30500D5B8E0630600D4CAE01C9A62
:103DF000111D1C911168FF220A4005940A9B04932F
:103E000053460393029600230193009243463A00DF
:103E100059462800FFF76EFA070027E01026CDE785
:103E20000826CBE70226C9E720221443C8E7A305EA
:103E300020D4E30550D4630666D51C9A111D1C914D
:103E40001168FF220A40D317D118594005940A9BE4
:103E50000493534603930296D20F01920091434676
:103E60003A0059462800FFF745FA0700119B013335
:103E70001193D3E61C9BDA1D07218A4311000831F8
:103E80001C91116853689C46DB170C930D930C9A98
:103E90000D9B100048400E90624653400F930E98C1
:103EA0000F990C9A0D9B801A99410E900F910894CE
:103EB0000A9B079353460693049600230593634693
:103EC000DA0F02920090019143463A0059462800C9
:103ED000FFF76EFA0700C9E71C9A111D1C911268C2
:103EE000D317D118594005940A9B04935346039362
:103EF0000296D20F0192009143463A00594628009B
:103F0000FFF7F8F90700B1E7230605D51C9A111D44
:103F10001C910023D25E96E71C9A111D1C91126819
:103F200091E71C9BDA1D07218A43110008311C917F
:103F300008940A9B0793534606930496002305931F
:103F40000293136854680093019443463A0059461B
:103F50002800FFF72DFA070088E71C9A111D1C9115
:103F600005940A9B049353460393029600230193FE
:103F70001368009343463A0059462800FFF7BAF900
:103F8000070073E723060DD51C9A111D1C911268BA
:103F90001204120C31E7C046E0990010249A001078
:103FA000709A00101C9A111D1C91126825E7462872
:103FB0001AD01C9B0733072293431A0008321C9225
:103FC00004940A9A0392524602925C681B6800931A
:103FD000019443463A0059462800FFF765FC070064
:103FE000119B0133119319E620231C43E1E7672855
:103FF00001D0472802D180231B011C43452801D052
:10400000472801D120231C431C9B073307229343DD
:104010001A0008321C9204940A9A039252460292A1
:104020005C681B680093019443463A005946280097
:10403000FFF730FA0700119B01331193EEE50223DD
:104040001A002240924623421FD001241C9B1A1DB5
:104050001C927A1C9146187843463A005946A84764
:104060005346002B16D1119B013311934F46D5E5D2
:10407000561C434659462020B847230032005C1C9A
:104080009D42F5D83D001700E0E701233A002F00DC
:104090000A9DF4E74A46A9460A9D06E0571C434696
:1040A00059462020C84734003A00661CA542F5D87E
:1040B0004D469146D7E71C9B1A1D1C921B689946DA
:1040C0005346002B00D1013B4E4601E00136130060
:1040D0003278002A02D05A1E002BF7D14B46F21A32
:1040E00010928023DB0026001E401C4203D0524564
:1040F00001D95346109302231A0022400B92234207
:1041000005D03A0037004C46A946554620E03A0013
:10411000109B5F46B3462E0006E0551C434639000F
:104120002020B04723002A005C1C0A999942F4D849
:1041300035005E46BB46109437004C46A9465546AE
:1041400006E01D000134561C43465946C84732005C
:104150002078002804D0002FF4D06B1E002DF0D161
:1041600017004D460B9B002B03D1119B013311937C
:1041700054E50A9F109B06E0561C434659462020F2
:10418000A847230032005C1C9F42F5D81700ECE7DB
:1041900021231C431C9B1A1D1C921B680093059431
:1041A000082304935346039310230293002301939F
:1041B00043463A0059462800FFF79CF80700119B38
:1041C000013311932AE57C1C43463A0059462520C9
:1041D000A847119B0133119327001FE57C1C434620
:1041E0003A005946A847119B01331193270015E562
:1041F0000A4B9A4610E5AA46474502D343465A1E43
:1042000000E03A00434659460020D047380013B03A
:10421000F0BCBB46B246A946A046F0BD0131001035
:1042200000B585B0029003910121009313004A422A
:1042300002A90248FFF7E2FC05B000BD03310010FF
:1042400000BEFDE703000A4A1268002A08D0084AA7
:104250001068C318074A9A4206D3054A136070478C
:10426000034A05491160F2E701204042F7E7C046E2
:10427000B05E0020000004202C65002010B5030073
:1042800008001100002B05D1044B1A685B6800F090
:1042900041F910BD01204042FBE7C046989600104E
:1042A00010B5030008001400013B012B06D80123C0
:1042B0000022210000F0E4F8200010BD012040425F
:1042C000FBE7012040427047012040427047012037
:1042D000404270470300002002229A42404170474A
:1042E00010B5FFF7ADFF000010B582B00C0019004B
:1042F000002A0CD0084B002A0BD001920093230017
:104300000200064800F0A4F90120FFF799FF044BD2
:10431000F1E7034AF1E7C046109C0010209C001012
:10432000E88E001010B5EFF30583002B00D000BE1F
:10433000FDF7C6FE034C01E008CC9847024B9C42B7
:10434000FAD310BDC48D0010CC8D001010B5030041
:10435000080011001B68984710BD0000F8B5070061
:104360000D001600437D002B02D0002400200CE03D
:1043700003681100280098472DE03B7D10E00221E2
:1043800015483B689847601C0134B44214DA002C8D
:10439000F3DD2B19013B1B780D3B5A425341DBB235
:1043A0002A5D0A2AF0D1002BEED1A042E7DA211AC9
:1043B00028183B689847E2E7B04203DA311A281818
:1043C0003B689847002E06DDAD19013D2B780D3B6B
:1043D0005A4253413B75F8BD509C001070B5050022
:1043E0000368002B16D00C4B1C6805E0290004C99B
:1043F0002000FFF7B3FF2469002C09D02368002BAD
:10440000F9D0064B1B68002BF0D0A342F3D1EDE7A7
:1044100000232B6070BDC0469C5E0020AC5E002077
:1044200070B505000C000B68802B05D021684B1C73
:1044300023606418257170BD0800FFF7CFFFF5E712
:1044400010B5FDF737FC074A002312184B41002B2B
:1044500003DB054804F078FC10BD01225242034BF7
:10446000F7E7C04640420F00C0150020FFFFFF7F66
:1044700010B5024804F020FC10BDC046C015002055
:10448000F0B5CE46474680B583B006000D00904695
:104490001C00FFF7D5FF81466B1C05D0002C08D00F
:1044A000184F194B1C6807E0300003F0F7FF0500B8
:1044B000F4E7164FF5E72469002C17D02368002B8A
:1044C000F9D0134B1B68002B01D0A342F3D12A0073
:1044D00031002000B8474346002BECD06B46D91D75
:1044E0000A230B7001222000B847E4E74B46002B5B
:1044F00005D1280003B0C0BCB946B046F0BDFFF7F7
:10450000B7FFF6E75D4300109C5E00204D430010AE
:10451000AC5E0020F0B5CE4600B582B006000F00BC
:104520009146019328E0A368002B04D039003000A5
:104530009847002827DC2469002C06D0144D2D68EC
:10454000002DF0D0A542F6D1EDE701990A00114BFC
:104550005B6A994209D80F49896A49450FD29A4244
:1045600001D0012302E0002300E00023002B08D14A
:1045700001200021FDF7A6FB074B1C68DCE70123A7
:10458000F4E70220404202B080BCB946F0BDC0460C
:10459000AC5E0020004005409C5E0020094A01E01E
:1045A00010331A001368002B08D08342F8D1002979
:1045B00007D1036913600023036102E0002900D0E2
:1045C000106070479C5E002010B5064B1C6801E02F
:1045D00098472469002C03D06368002BF8D1F8E7D2
:1045E00010BDC0469C5E002010B500F09FF910BDC4
:1045F00070B5050003F052FF040001230122010001
:104600002800FFF73DFFFFF7DFFF200070BD00002F
:1046100070B5A2B004000E00FFF712FF05000023E2
:1046200001933300220001A90848FFF7F9FD0400B7
:1046300001A8FFF7D3FEFFF7C7FF002D02D120002E
:1046400022B070BDFFF714FFF9E7C0462144001007
:104650000FB400B583B004A901C90191FFF7D8FFD9
:1046600003B008BC04B0184770470000014B00229B
:104670001A707047276500204B79FF2B0CD18B797E
:10468000002B0BD1CB79012B0AD1082A0AD98A78C1
:10469000054B1A70092000E0002070470020FCE75D
:1046A0000020FAE70020F8E7276500200120704786
:1046B00010B5012928D1117953791B020B431349F5
:1046C00009788B4201D000201FE05378012B03D0E2
:1046D000022B12D0002018E09178D3781B021943E6
:1046E000DB0507D5480A4A0A01231A407E331940E0
:1046F000FDF7B0FC01204042F5E7642200210020D4
:10470000FDF750FC012000E0012010BD27650020CE
:1047100000487047749C001010B51400012910D196
:104720005378012B0FD1127963791B021343072BA6
:1047300001D0002006E09F33044A210001F026FB4F
:1047400000E0012010BD0020FCE7C046989C00104E
:104750000123037000487047549C001010B50B787B
:104760004878000218438A7812041043CB781B065D
:1047700003439622D200934200D010BD01200022B4
:1047800011004042FDF766FC024B1860024B1960B5
:104790007047C0463C1E0020401E002010B5FDF7AB
:1047A00089FA0E4A002312184B41002B12DB0C48E9
:1047B00004F0CAFA00280CD001200021404201F088
:1047C000AFF9002001F05AFC0028F5D1044804F0AC
:1047D00073FA10BD01225242024BE8E740420F003B
:1047E000FC640020FFFFFF7F10B5024B1878FCF738
:1047F000FDFA10BD2865002070B5164B1B68002B14
:104800001FD0EFF3108272B619680029FCD0BFF3F5
:104810005F8F10494A6000230F4803700968BFF397
:104820005F8F0B6082F31088002400250B4B1878F3
:10483000FCF7B8FA002808D1002400252000290040
:1048400070BDFA24A4000025F0E7044B1878FCF7AB
:10485000CDFAF3E7BC62002029650020286500201E
:1048600010B584B000212A4804F046FA00281FD170
:10487000284B1B68002B19D0EFF3108272B6196811
:104880000029FCD0BFF35F8F22494A602248037899
:1048900001246340DBB2012404700968BFF35F8F19
:1048A0000020086082F31088002B17D104B010BDDF
:1048B00001200021404201F033F9002001F0AEFB5D
:1048C0000400134804F0F8F9002CEFD0134B1B68D8
:1048D000002BEBD0124A10689847E7E7FCF7A6FFD9
:1048E0000400FDF7E7F9FA229200002312184B4169
:1048F000002B09DB0121029100210191094900915E
:104900002000FDF701F8D1E701225242064BF1E702
:10491000FC640020BC620020296500203C1E0020B1
:10492000401E0020F9470010FFFFFF7F10B584B044
:10493000D0231B061C68FCF779FFFDF73FF8A04267
:104940002CD12D4B1B7802F0B5F82C4B1B68002B9B
:104950002AD00120FCF710FDC0B2294C2070294953
:10496000FCF772FA20780121FCF736FA0520FCF7F3
:104970004DFA041E1CD00120FCF76EF901002248FC
:10498000FCF758FD002221490520FCF787FA012198
:104990001F48FFF703FE200004B010BD1D4B1E4A48
:1049A000C6211E48FFF7A0FC1448FCF701FDD0E724
:1049B000082200211448FEF797FBFCF737FF04009C
:1049C000FDF778F9FA229200002312184B41002BD0
:1049D0000DDB01210291002101911149009120007C
:1049E000FCF792FFC043C40F0028D4DACFE70122BE
:1049F00052420C4BEDE7C046B0A60010FC6400200C
:104A00002865002061480010BC620020E9470010C2
:104A1000400D0020B0930010AC9D0010409D001090
:104A2000F9470010FFFFFF7F10B5002001F0D2FA18
:104A300010BD000070B505000C00FFF7F5FF002861
:104A400034D0002001F0EAFA002832D0FDF732F924
:104A50001B4A002312184B41002B19DB194804F0A4
:104A600073F9002828D0FFF7DFFF002804D00020CA
:104A700001F0D4FA00280FD101200021404201F0BA
:104A80004FF8032464420F4804F016F9200070BD6B
:104A9000012252420C4BE1E722002900002001F0E4
:104AA000CDFA041EEFD103246442ECE703246442F0
:104AB000ECE703246442E9E703246442E6E7C046E6
:104AC00040420F00FC640020FFFFFF7FF0B5C646A8
:104AD00000B580460C00FDF7EDF8314A00231218AE
:104AE0004B41002B07DB2F4804F02EF9002806D19C
:104AF00080BCB846F0BD012252422B4BF3E7FFF7D2
:104B000093FF002849D1294B0020002118605960EB
:104B1000244804F0D1F8EBE701200021404200F0E6
:104B2000FFFF002001F0AAFAFFF77EFF0028EFD078
:104B3000002001F037FB002820D0A542E8DA661BF0
:104B4000002001F02FFB0200864200DC3200002A28
:104B5000E2D043465919002001F0FEFA0600012078
:104B60000021404200F0DCFF002001F087FAAD197F
:104B7000FDF7A0F80D4B18605960DEE7FDF79AF8D5
:104B80000A4B1E685F680A4A002392197B419942CA
:104B9000BED8D2D19042D0D9BAE70025CDE7C046E1
:104BA00040420F00FC640020FFFFFF7F48170020F9
:104BB00020A10700004870473C9E00100048704745
:104BC000E89D001010B50400154B1B78002B0ED08B
:104BD000002C11D1134B144A5A80012301335B007E
:104BE0001BB2C022920013430E48038010BD112156
:104BF0000B4800F025F8EBE7052C0ED8A4000B4B72
:104C0000E4580023122BE9D8E25C002AE6D00133F5
:104C1000590004484252DBB2F4E70020E6E7C04600
:104C200008650020745E002009040000509E0010FA
:104C300010B5024800F034F810BDC046E062002014
:104C400010B5002901D000230AE0114B114A3B3175
:104C50001148FFF749FB00240DE03732C2540133FD
:104C60004A1E9A420FD90F2B0DD85A080B4CA25C42
:104C7000DC07F0D40424224114000F222240092A28
:104C8000EBDC3032EAE7C0180023037010BDC046E9
:104C9000689E0010BC9E0010709E0010E062002014
:104CA00070B588B0040004AD0026049609220021E6
:104CB00005A8FEF719FA00960922002101A8FEF7BF
:104CC00013FA4B232B700D226946280003F0ECFFEA
:104CD000002304E05A1D69468A5CE2540133072B25
:104CE000F8DD08B070BD000010B5038B3F333F22E4
:104CF0009343022915D0124C2268C260D318236056
:104D00009C0610D10F4C6240634080246401A34292
:104D10000FD88906114380231B0619434368196085
:104D200010BD5B00E7E7084B084A51210848FFF730
:104D3000DBFA084B054A53210548FFF7D5FAC04670
:104D4000B862002000001050F0A0001010A2001067
:104D500020A100107CA1001070B504007F23034047
:104D6000C509580040194001264E801984706C42D4
:104D70006C4144700024C4700183C276012D1DD0A3
:104D8000DE0021498C4666445900491949011D4CF1
:104D900061188E605C00641964011A490C19A168DD
:104DA00000240C60002B0FD15B005B195B01154DDB
:104DB000EB1800225A60154ADA6070BDDE00144913
:104DC0008C4666448660E5E7012D0ED0591EC90069
:104DD000104CA44661445B005B195B01094CE3186D
:104DE00059601100FFF780FFE7E7591EC9000A4C20
:104DF000A44661445B005B195B01024DEB185960EE
:104E0000EFE7C046B45E002084001050000110504F
:104E1000800010500C0010500800105010B5040015
:104E20007F202040E409400000194001024BC018D7
:104E300000F032F910BDC046B45E002010B5002865
:104E400004D101210520FBF7C7FF10BDD421034B7E
:104E5000034A49000348FFF747FAC046C4A10010BF
:104E600000A2001020A1001010B5002805D10022DA
:104E700000218020FFF7D2FF10BDD921024B034A49
:104E800049000348FFF730FAC4A10010F0A1001058
:104E900020A10010024B80225202DA647047C04603
:104EA0000020115070B5041E26D100F0D3F8164D25
:104EB0000C23AB67FF2215490520FBF7EFFF4022CB
:104EC00000211348FEF710F9002240210020FFF7CF
:104ED00043FF002240218020FFF73EFF03F0DCFE6D
:104EE00001232B6480239B05EB649023094AEA503D
:104EF0002000FFF7CFFF70BD7621074B074AFF3137
:104F00000748FFF7F1F9C04600001150C504002022
:104F1000B45E002010D00100C4A1001024A2001033
:104F200020A10010044B1970002904D0034A9023DB
:104F300080218902D1507047236500200020115044
:104F40000B785B0602D14B78052B00D070478A782E
:104F5000014B1A60FAE7C0460000115010B50C0072
:104F600000280DD1097963791B020B435B05590DAC
:104F7000E2789207920FA078FFF7EEFE012010BDB5
:104F8000F021034B034AFF310348FFF7ADF9C04658
:104F9000C4A10010E0A1001020A1001010B503F082
:104FA0007BFE10BD10B50400080011001A00002C93
:104FB00003D1FFF733FF012010BDFE21024B034A4E
:104FC00049000348FFF790F9C4A10010D0A10010D8
:104FD00020A1001010B57F2213000B400A4205D11A
:104FE000CA09012A0ED00220074A9066C909580052
:104FF000401840010549401880221201002103F0A9
:10500000BBFE10BD0120EFE700201150B45E002070
:1050100010B57F22100008400A4200D110BDC90916
:10502000400040184001044940180023C37000228A
:10503000024903F0A1FEF1E7B45E0020FFF7FFFF95
:1050400004E00A780270013101301A00531E002A70
:10505000F7D1704710B580235B040A4A13600A4AEF
:1050600013600A4B1A6880235B049343F9D18022B2
:10507000520100210648FEF737F8064B09225A670D
:1050800010BDC04600E0004000F0004008C00040F5
:10509000000010500000115070B504000D00160003
:1050A000837E002B17D1A6820023E3820133A376EF
:1050B0002561200003F010FE002804D00C4A902344
:1050C00080218902D150200003F036FE00280AD04A
:1050D0000123237770BD81780648FFF7B9FA2000D5
:1050E00003F042FEDFE7200003F036FEF2E7C046A1
:1050F0000020115014A3001070B5050000240AE030
:10510000D21A5201164B9B18002B11D0DB682800D5
:1051100098470134E4B2134B1B78591C2200A1427A
:105120000CDBA342ECD9104B1B6862019B18EBE728
:105130000E4A0F490F48FFF78BFA10E00E4C54222D
:1051400000212000FDF7D0FF201D1022FF21FDF7D8
:10515000CBFF200014302022FF21FDF7C5FF70BDDA
:10516000D0A4001022650020AC1700201602000019
:1051700034A400105CA300105819002010B5FFF7EC
:10518000BBFF00F057FE10BD70B505000C00160007
:10519000486900F059FE63693200012128009847F0
:1051A00070BD0000F0B5DE4657464E464546E0B5B8
:1051B00083B082460139C8B2FFF700FD002803D052
:1051C00043780193022B0CD0514A52495248FFF7C1
:1051D0003FFA002003B0F0BCBB46B246A946A04649
:1051E000F0BDC5796A1101234C491A4014010A78AF
:1051F0001026B24322430A70AD112B405B01D2B29C
:105200002024A24313430B70060009368278C3782A
:105210001B02134383469B445E4577D273780B2B66
:105220000AD0012399467378042B0AD15B469B1B55
:105230009BB2984600243DE0F37899463378F618FF
:10524000F1E7374A33493448FFF702FA0020C1E753
:105250007D1B6D01334B5D1938E0334A2D492E48D3
:10526000FFF7F6F90020B5E72A69304B9A423CD1A6
:10527000019B994639E02E4A26492748FFF7E8F96D
:105280000020A7E725482300009C220031001430AD
:1052900001F0BEFCA4466644264B1B7801339F42B6
:1052A000BADD254A1B491C48FFF7D2F9002091E7D7
:1052B0000134E4B21F4B1D786B1C2700A342EBDBCB
:1052C000A542C5D91D4B1D686301ED18002DC4D042
:1052D0004246310050462B69984700900828E7D98C
:1052E0008045E5D34B46012BBED000218945C9D965
:1052F000B3785B18DBB2094AD2181279FF2ABAD107
:10530000064AD3181C710131C9B2EFE7012061E7E9
:10531000C7030000BCA400105CA3001058190020B3
:10532000E2030000D0A40010EB0300007163001042
:105330000A0400002265002019040000AC170020B8
:1053400070477047002070470020704770B5050017
:105350000C00CB7888780F2B53D89A002E498A58A6
:105360009746FFF727FC021E05D0122321002800D4
:1053700000F00CFD46E0294A29492A48FFF768F960
:1053800000203FE0FFF7C4F9021E3CD08178C378CB
:105390001B020B432100280000F0F8FC32E0022B36
:1053A0000CD0FFF7D1FF021E2FD09178D3781B02CB
:1053B0000B432100280000F0E9FC23E0FFF7FEFB8F
:1053C000021EF2D1184A16491648FFF741F900208B
:1053D00018E02379617909021943FFF7F3FB021EF4
:1053E00015D003782100280000F0D0FC0AE0FFF778
:1053F000A9FF021E0DD003782100280000F0C6FC92
:1054000000E0002070BD0020FCE70020FAE700204B
:10541000F8E70020F6E7C04674A300102B04000054
:10542000A4A400105CA30010520400007047704751
:1054300070477047024B5878431E9841C0B270477E
:1054400058190020024B18784007C00F7047C0461B
:1054500058190020034B1878FF38431E9841C0B2FA
:105460007047C046740D002070B50500FFF7F2FFCD
:10547000061E01D0300070BD542200212448FDF7E3
:1054800033FE244B00221A70234C2000FBF790FFC0
:10549000224B1C60224C20001430FBF7D5FF20006B
:1054A00001F01FFE1F4B1C601F4B002B04D01F4838
:1054B000FFF74EF91E4B186000240BE0D21A520180
:1054C0001C4B9B18002B12D05B68002B0FD0984709
:1054D0000134E4B2154B1B78591C2200A1420DDBAC
:1054E000A342EBD9124B1B6862019B18EAE7F12239
:1054F000520011491148FFF7ABF8BBE7104B1D7084
:105500002800FFF7CFFC2800FFF798FC0126B1E741
:10551000581900202465002010190020AC19002023
:10552000580D0020B01900205147001022650020BE
:10553000AC170020D0A4001058A400105CA30010E9
:10554000740D002070B50D00104B1E788B78702202
:105550001A420DD10E4B9978280001F003FB041E6E
:105560000DD029003000FFF7F9FC0400200070BDC9
:10557000084A09490948FFF76BF80024F6E7084A8A
:1055800005490648FFF764F8F0E7C046740D0020AF
:1055900058190020FD04000074A400105CA3001042
:1055A000FE040000F0B5D6464F464646C0B58146DB
:1055B0000C0017009846089B9A46002516E0184AEA
:1055C00018491948FFF744F800263000E0BCBA46F5
:1055D000B146A846F0BD154A12491348FFF738F8FE
:1055E000F3E7099A13702378E4180135AF4214DD0C
:1055F0006378052BE3D1E1788907890F4145DED136
:1056000021004846FFF79EFF061EE4D0A378DA0982
:10561000012AE6D052461370E5E70126D5E7C046D9
:10562000D904000084A400105CA30010DA04000078
:1056300010B57F200840C9094000401830300449A7
:1056400008180430034B196801F046FA10BDC04633
:1056500058190020AC19002010B57F200840C90956
:10566000400040183030044908180430034B1968D2
:1056700001F05AFA10BDC04658190020AC1900209C
:10568000F0B5C64600B582B001931A4800787F2570
:105690000D40CE096F00184CE419A4193034247958
:1056A000E4071DD46F00144CE419A4193034237995
:1056B0000127BC4667463B432371019BFFF772FC01
:1056C000002813D16D000C4B5D19AE1930363379BB
:1056D000012293433371337903329343337105E0ED
:1056E000064A07490748FEF7B3FF002002B080BC16
:1056F000B846F0BD740D0020581900202B0500009D
:1057000064A400105CA3001070B50A4B18787F24C5
:105710000C40CD09FFF75EFC6400074B1B195B19B9
:1057200030331A7902210A431A711A7901210A4386
:105730001A7170BD740D00205819002070B50A4B05
:1057400018787F240C40CD09FFF762FC6400074BFA
:105750001B195B1930331A7902218A431A711A799D
:1057600001398A431A7170BD740D00205819002048
:105770007F220A40CB09520003498918C9183031E9
:1057800008798007C00F704758190020F0B5C64649
:1057900000B582B004000D00002000F055FB2B780E
:1057A00060221A40602A12D0402A17D02B78DB06DC
:1057B000DB0E012B00D1DAE0022B00D11AE1002B25
:1057C00016D00026300002B080BCB846F0BDC94AF1
:1057D000C949CA48FEF73CFF0026F3E7C84800F075
:1057E00033FB2A0001212000FEF796FF0600E9E7BF
:1057F000202A0AD0002A00D06EE16B78092B00D94C
:105800006CE19B00BF4AD3589F462B790F2B00D9E0
:105810005CE1BD4AD3181B79BC4A11788B420CD28B
:10582000BB4A126859015118002900D152E12A00DF
:105830002000FFF7A9FC0600C4E74A1C9A4200DAE0
:1058400046E1591A4901B34B5918EDE7280000F019
:1058500001FBA9782000FFF707FBAB4A1378022170
:105860000B4313700126ADE7A74B5B786A460632FF
:10587000137001232900200000F088FA0126A1E717
:10588000AE78A14B5B78DBB2B3422BD09E4B5B78FA
:10589000002B0CD19C4B5E70002E21D031002000DB
:1058A000FFF780FC061E12D0FFF7C0FD1AE00021B2
:1058B0002000FFF737FB2000FFF770FB924FBB780B
:1058C00098462000FFF718FC4346BB70E2E7924A77
:1058D00089498A48FEF7BCFE8B4B00225A7071E75B
:1058E000FFF7A5FD2900200000F034FA012669E742
:1058F00029002000FFF72AFD060063E7A978EB786E
:105900001B020B43012B01D000265BE77E4A137874
:1059100008210B4313702900200000F01BFA012618
:1059200050E7A978EB781B020B43012B01D000262E
:1059300048E7754A137808218B431370290020002B
:1059400000F008FA01263DE76F4B1A7851099208DA
:1059500001230B4002210A4013436A46063213809A
:1059600002232900200000F011FA01262AE72B79F2
:105970000F2B00D9B4E0644AD3181B79634A11781D
:105980008B4223D2624A126859015118002900D172
:10599000AAE02A002000FFF7F7FB061E00D011E75F
:1059A0002B7860221A4200D00CE76B780A3B012B5F
:1059B00000D907E7002000F047FA6B780A2B0ED0D9
:1059C0002900200000F0C6F90126FBE64A1C9A4295
:1059D00000DA87E0591A49014E4B5918D6E76B4651
:1059E0009A1D0023137001332900200000F0CEF926
:1059F0000136E7E629797F230B40CE097020084263
:105A000017D15B004048C3189B191B7D3F480078A5
:105A1000834215D23E4806685B01F618002A19D069
:105A2000002E63D02A0031002000FFF7ADFB0600F6
:105A3000C8E63A4A30493148FEF70AFE0026C1E678
:105A4000461C9E4204DB1B1A5B01324EF618E5E74A
:105A50000026E3E76A78012A12D0032A10D0002A30
:105A600001D00026AEE62000FFF782FE6B469A1DAD
:105A7000108002232900200000F088F90126A1E609
:105A8000A878EB781B02034304D1012A1AD0200026
:105A9000FFF73AFE002E2BD02A0031002000FFF73E
:105AA00073FB002000F0D0F9174A3523D35CDB07E5
:105AB000DE0F002B00D085E62900200000F04AF917
:105AC00001267FE62000FFF739FEE3E7002679E6AE
:105AD000002677E6002675E6002673E6002671E6C6
